{
  "contractName": "AccessController",
  "abi": [
    {
      "inputs": [],
      "stateMutability": "nonpayable",
      "type": "constructor"
    },
    {
      "anonymous": false,
      "inputs": [
        {
          "indexed": false,
          "internalType": "address",
          "name": "newAdminAddress",
          "type": "address"
        }
      ],
      "name": "AddedAdmin",
      "type": "event"
    },
    {
      "anonymous": false,
      "inputs": [
        {
          "indexed": false,
          "internalType": "address",
          "name": "newOwnerAddress",
          "type": "address"
        }
      ],
      "name": "OwnerSet",
      "type": "event"
    },
    {
      "anonymous": false,
      "inputs": [],
      "name": "Paused",
      "type": "event"
    },
    {
      "anonymous": false,
      "inputs": [
        {
          "indexed": false,
          "internalType": "address",
          "name": "prevAdminAddress",
          "type": "address"
        }
      ],
      "name": "RemovedAdmin",
      "type": "event"
    },
    {
      "anonymous": false,
      "inputs": [],
      "name": "Unpaused",
      "type": "event"
    },
    {
      "inputs": [],
      "name": "adminAddress",
      "outputs": [
        {
          "internalType": "address",
          "name": "",
          "type": "address"
        }
      ],
      "stateMutability": "view",
      "type": "function"
    },
    {
      "inputs": [],
      "name": "ownerAddress",
      "outputs": [
        {
          "internalType": "address",
          "name": "",
          "type": "address"
        }
      ],
      "stateMutability": "view",
      "type": "function"
    },
    {
      "inputs": [],
      "name": "paused",
      "outputs": [
        {
          "internalType": "bool",
          "name": "",
          "type": "bool"
        }
      ],
      "stateMutability": "view",
      "type": "function"
    },
    {
      "inputs": [
        {
          "internalType": "address",
          "name": "_newOwnerAddress",
          "type": "address"
        }
      ],
      "name": "updateOwner",
      "outputs": [],
      "stateMutability": "nonpayable",
      "type": "function"
    },
    {
      "inputs": [
        {
          "internalType": "address",
          "name": "_newAdminAddress",
          "type": "address"
        }
      ],
      "name": "setAdmin",
      "outputs": [],
      "stateMutability": "nonpayable",
      "type": "function"
    },
    {
      "inputs": [],
      "name": "pause",
      "outputs": [],
      "stateMutability": "nonpayable",
      "type": "function"
    },
    {
      "inputs": [],
      "name": "unpause",
      "outputs": [],
      "stateMutability": "nonpayable",
      "type": "function"
    }
  ],
  "bytecode": "0x60806040526001805460ff60a01b1916905534801561001d57600080fd5b50600080546001600160a01b0319163390811782558152600260209081526040808320805460ff19166001179055915491516001600160a01b0390921682527f50146d0e3c60aa1d17a70635b05494f864e86144a2201275021014fbf08bafe2910160405180910390a16000546040516001600160a01b0390911681527f7849194239ab1d31b991b5436d81370256505cf25eaafbcccbc66acd118969169060200160405180910390a16105dd806100d66000396000f3fe608060405234801561001057600080fd5b506004361061007d5760003560e01c80638456cb591161005b5780638456cb59146100c8578063880cdc31146100d05780638f84aa09146100e3578063fc6f94681461010e57600080fd5b80633f4ba83a146100825780635c975abb1461008c578063704b6c02146100b5575b600080fd5b61008a610121565b005b6001546100a090600160a01b900460ff1681565b60405190151581526020015b60405180910390f35b61008a6100c33660046104e9565b6101fb565b61008a610344565b61008a6100de3660046104e9565b610410565b6000546100f6906001600160a01b031681565b6040516001600160a01b0390911681526020016100ac565b6001546100f6906001600160a01b031681565b3360009081526002602052604090205460ff16151560011461015e5760405162461bcd60e51b815260040161015590610519565b60405180910390fd5b600154600160a01b900460ff166101c35760405162461bcd60e51b815260206004820152602360248201527f416363657373436f6e74726f6c3a2063757272656e6c7479206e6f74207061756044820152621cd95960ea1b6064820152608401610155565b6001805460ff60a01b191690556040517fa45f47fdea8a1efdd9029a5691c7f759c32b7c698632b563573e155625d1693390600090a1565b6000546001600160a01b031633146102255760405162461bcd60e51b815260040161015590610560565b6001600160a01b0381166102895760405162461bcd60e51b815260206004820152602560248201527f416363657373436f6e74726f6c3a20696e76616c696420776f726b6572206164604482015264647265737360d81b6064820152608401610155565b600180546001600160a01b03908116600090815260026020908152604091829020805460ff1916905592549051911681527f3137a7fedbfedb7895dfa5a6812a4566dae9ded68d00aeec13c6ed1fa84a1c80910160405180910390a1600180546001600160a01b0319166001600160a01b0383169081179091556000819052600260209081526040519182527f7849194239ab1d31b991b5436d81370256505cf25eaafbcccbc66acd1189691691015b60405180910390a150565b3360009081526002602052604090205460ff1615156001146103785760405162461bcd60e51b815260040161015590610519565b600154600160a01b900460ff16156103d25760405162461bcd60e51b815260206004820152601f60248201527f416363657373436f6e74726f6c3a2063757272656e746c7920706175736564006044820152606401610155565b6001805460ff60a01b1916600160a01b1790556040517f9e87fac88ff661f02d44f95383c817fece4bce600a3dab7a54406878b965e75290600090a1565b6000546001600160a01b0316331461043a5760405162461bcd60e51b815260040161015590610560565b6001600160a01b03811661049b5760405162461bcd60e51b815260206004820152602260248201527f416363657373436f6e74726f6c3a20696e76616c69642043454f206164647265604482015261737360f01b6064820152608401610155565b600080546001600160a01b0319166001600160a01b0383169081179091556040519081527f50146d0e3c60aa1d17a70635b05494f864e86144a2201275021014fbf08bafe290602001610339565b6000602082840312156104fb57600080fd5b81356001600160a01b038116811461051257600080fd5b9392505050565b60208082526027908201527f416363657373436f6e74726f6c3a206d73672e73656e646572206d7573742062604082015266329030b236b4b760c91b606082015260800190565b60208082526027908201527f416363657373436f6e74726f6c3a206d73672e73656e646572206d7573742062604082015266329037bbb732b960c91b60608201526080019056fea26469706673582212203ecfd6c3f498f8735bde4975c038f7e02027c85db46caa473df3bfd2413227f864736f6c634300080d0033",
  "immutableReferences": {},
  "source": "// SPDX-License-Identifier: MIT\r\n//-U+2654-  - 0xRoyalties\r\n\r\npragma solidity ^0.8.0;\r\n\r\ncontract AccessController {\r\n\r\n    /////////////////////////////////////////////////\r\n    //                   EVENTS                    //\r\n    /////////////////////////////////////////////////\r\n        event OwnerSet(address newOwnerAddress);\r\n        event RemovedAdmin(address prevAdminAddress);\r\n        event AddedAdmin(address newAdminAddress);\r\n        \r\n        event Paused();\r\n        event Unpaused();\r\n\r\n    ////////////////////////////////////////////////\r\n    //                  VARS                      //\r\n    ////////////////////////////////////////////////\r\n        address public ownerAddress;\r\n        address public adminAddress;\r\n\r\n        bool public paused = false;\r\n        \r\n        //owner is included as an admin\r\n        mapping (address => bool) isAdmin;\r\n\r\n    ////////////////////////////////////////////////\r\n    //                  MODIFIERS                 //\r\n    ////////////////////////////////////////////////\r\n        modifier onlyOwner()\r\n        {\r\n            require(\r\n                msg.sender == ownerAddress,\r\n                'AccessControl: msg.sender must be owner'\r\n            );\r\n            _;\r\n        }\r\n\r\n        modifier onlyAdmin()\r\n        {\r\n            require(\r\n                isAdmin[msg.sender] == true,\r\n                'AccessControl: msg.sender must be admin'\r\n            );\r\n            _;\r\n        }\r\n\r\n        modifier whenNotPaused()\r\n        {\r\n            require(\r\n                !paused,\r\n                'AccessControl: currently paused'\r\n            );\r\n            _;\r\n        }\r\n\r\n        modifier whenPaused\r\n        {\r\n            require(\r\n                paused,\r\n                'AccessControl: currenlty not paused'\r\n            );\r\n            _;\r\n        }\r\n\r\n\r\n    ////////////////////////////////////////////////\r\n    //                  CORE                      //\r\n    ////////////////////////////////////////////////\r\n        constructor() \r\n        {\r\n            ownerAddress = msg.sender;\r\n            isAdmin[ownerAddress] = true;\r\n        \r\n            emit OwnerSet(ownerAddress);\r\n            emit AddedAdmin(ownerAddress);\r\n        }\r\n\r\n\r\n    ////////////////////////////////////////////////\r\n    //                  Functions                 //\r\n    ////////////////////////////////////////////////\r\n        function updateOwner(address _newOwnerAddress) \r\n            external\r\n            onlyOwner\r\n        {\r\n            require(\r\n                _newOwnerAddress != address(0x0),\r\n                'AccessControl: invalid CEO address'\r\n            );\r\n            ownerAddress = _newOwnerAddress;\r\n            emit OwnerSet(ownerAddress);\r\n        }\r\n\r\n        function setAdmin(address _newAdminAddress)\r\n            public\r\n            onlyOwner\r\n        {\r\n            require(\r\n                _newAdminAddress != address(0x0),\r\n                'AccessControl: invalid worker address'\r\n            );\r\n            //remove prev admin\r\n            isAdmin[adminAddress] = false;\r\n            emit RemovedAdmin(adminAddress);\r\n            \r\n            //set new admin + add to mapping\r\n            adminAddress = _newAdminAddress;\r\n            isAdmin[adminAddress] == true;\r\n            emit AddedAdmin(adminAddress);\r\n        }\r\n\r\n        function pause()\r\n            external\r\n            onlyAdmin\r\n            whenNotPaused\r\n        {\r\n            paused = true;\r\n            emit Paused();\r\n        }\r\n\r\n        function unpause()\r\n            external\r\n            onlyAdmin\r\n            whenPaused\r\n        {\r\n            paused = false;\r\n            emit Unpaused();\r\n        }\r\n\r\n}",
  "sourcePath": "C:\\dev\\0xRoyaltiesUnofficial\\contracts\\common-contracts\\AccessControl.sol",
  "compiler": {
    "name": "solc",
    "version": "0.8.13+commit.abaa5c0e.Emscripten.clang"
  },
  "schemaVersion": "3.4.7",
  "updatedAt": "2022-05-01T23:26:15.879Z",
  "devdoc": {
    "kind": "dev",
    "methods": {},
    "version": 1
  },
  "userdoc": {
    "kind": "user",
    "methods": {},
    "version": 1
  }
}