{
  "contractName": "LicenseAgreements",
  "abi": [
    {
      "anonymous": false,
      "inputs": [
        {
          "indexed": false,
          "internalType": "address",
          "name": "newAdminAddress",
          "type": "address"
        }
      ],
      "name": "AddedAdmin",
      "type": "event"
    },
    {
      "anonymous": false,
      "inputs": [
        {
          "indexed": false,
          "internalType": "address",
          "name": "buyer",
          "type": "address"
        },
        {
          "indexed": false,
          "internalType": "uint256",
          "name": "tokenId",
          "type": "uint256"
        },
        {
          "indexed": false,
          "internalType": "uint256",
          "name": "agreementId",
          "type": "uint256"
        }
      ],
      "name": "AgreementSigned",
      "type": "event"
    },
    {
      "anonymous": false,
      "inputs": [
        {
          "indexed": false,
          "internalType": "address",
          "name": "newOwnerAddress",
          "type": "address"
        }
      ],
      "name": "OwnerSet",
      "type": "event"
    },
    {
      "anonymous": false,
      "inputs": [],
      "name": "Paused",
      "type": "event"
    },
    {
      "anonymous": false,
      "inputs": [
        {
          "indexed": false,
          "internalType": "address",
          "name": "prevAdminAddress",
          "type": "address"
        }
      ],
      "name": "RemovedAdmin",
      "type": "event"
    },
    {
      "anonymous": false,
      "inputs": [],
      "name": "Unpaused",
      "type": "event"
    },
    {
      "inputs": [],
      "name": "adminAddress",
      "outputs": [
        {
          "internalType": "address",
          "name": "",
          "type": "address"
        }
      ],
      "stateMutability": "view",
      "type": "function"
    },
    {
      "inputs": [
        {
          "internalType": "uint256",
          "name": "",
          "type": "uint256"
        }
      ],
      "name": "agreementDetails",
      "outputs": [
        {
          "internalType": "address",
          "name": "buyerAddr",
          "type": "address"
        },
        {
          "internalType": "uint256",
          "name": "licenseId",
          "type": "uint256"
        },
        {
          "internalType": "uint256",
          "name": "childTokenId",
          "type": "uint256"
        }
      ],
      "stateMutability": "view",
      "type": "function"
    },
    {
      "inputs": [
        {
          "internalType": "uint256",
          "name": "",
          "type": "uint256"
        },
        {
          "internalType": "uint256",
          "name": "",
          "type": "uint256"
        }
      ],
      "name": "agreements",
      "outputs": [
        {
          "internalType": "uint256",
          "name": "",
          "type": "uint256"
        }
      ],
      "stateMutability": "view",
      "type": "function"
    },
    {
      "inputs": [
        {
          "internalType": "address",
          "name": "",
          "type": "address"
        }
      ],
      "name": "approvedAgreementMakerContracts",
      "outputs": [
        {
          "internalType": "bool",
          "name": "",
          "type": "bool"
        }
      ],
      "stateMutability": "view",
      "type": "function"
    },
    {
      "inputs": [],
      "name": "ownerAddress",
      "outputs": [
        {
          "internalType": "address",
          "name": "",
          "type": "address"
        }
      ],
      "stateMutability": "view",
      "type": "function"
    },
    {
      "inputs": [],
      "name": "pause",
      "outputs": [],
      "stateMutability": "nonpayable",
      "type": "function"
    },
    {
      "inputs": [],
      "name": "paused",
      "outputs": [
        {
          "internalType": "bool",
          "name": "",
          "type": "bool"
        }
      ],
      "stateMutability": "view",
      "type": "function"
    },
    {
      "inputs": [
        {
          "internalType": "address",
          "name": "_newAdminAddress",
          "type": "address"
        }
      ],
      "name": "setAdmin",
      "outputs": [],
      "stateMutability": "nonpayable",
      "type": "function"
    },
    {
      "inputs": [
        {
          "internalType": "uint256",
          "name": "",
          "type": "uint256"
        }
      ],
      "name": "tokenGenerationNumber",
      "outputs": [
        {
          "internalType": "uint256",
          "name": "",
          "type": "uint256"
        }
      ],
      "stateMutability": "view",
      "type": "function"
    },
    {
      "inputs": [
        {
          "internalType": "uint256",
          "name": "",
          "type": "uint256"
        }
      ],
      "name": "tokenLineage",
      "outputs": [
        {
          "internalType": "uint256",
          "name": "",
          "type": "uint256"
        }
      ],
      "stateMutability": "view",
      "type": "function"
    },
    {
      "inputs": [],
      "name": "unpause",
      "outputs": [],
      "stateMutability": "nonpayable",
      "type": "function"
    },
    {
      "inputs": [
        {
          "internalType": "address",
          "name": "_newOwnerAddress",
          "type": "address"
        }
      ],
      "name": "updateOwner",
      "outputs": [],
      "stateMutability": "nonpayable",
      "type": "function"
    },
    {
      "inputs": [
        {
          "internalType": "address",
          "name": "_approvedAgreementMaker",
          "type": "address"
        }
      ],
      "name": "approveAgreementMaker",
      "outputs": [],
      "stateMutability": "nonpayable",
      "type": "function"
    },
    {
      "inputs": [
        {
          "internalType": "address",
          "name": "_buyerAddr",
          "type": "address"
        },
        {
          "internalType": "uint256",
          "name": "_licenseId",
          "type": "uint256"
        },
        {
          "internalType": "uint256",
          "name": "_tokenId",
          "type": "uint256"
        },
        {
          "internalType": "uint256",
          "name": "_childTokenId",
          "type": "uint256"
        },
        {
          "internalType": "uint256",
          "name": "_timestamp",
          "type": "uint256"
        }
      ],
      "name": "signAgreement",
      "outputs": [
        {
          "internalType": "uint256",
          "name": "_agreementId",
          "type": "uint256"
        }
      ],
      "stateMutability": "nonpayable",
      "type": "function"
    },
    {
      "inputs": [
        {
          "internalType": "uint256",
          "name": "_childTokenId",
          "type": "uint256"
        }
      ],
      "name": "getAgreementId",
      "outputs": [
        {
          "internalType": "uint256",
          "name": "agreementId",
          "type": "uint256"
        }
      ],
      "stateMutability": "view",
      "type": "function"
    },
    {
      "inputs": [
        {
          "internalType": "uint256",
          "name": "_agreementId",
          "type": "uint256"
        }
      ],
      "name": "getChildTokenId",
      "outputs": [
        {
          "internalType": "uint256",
          "name": "",
          "type": "uint256"
        }
      ],
      "stateMutability": "view",
      "type": "function"
    },
    {
      "inputs": [
        {
          "internalType": "uint256",
          "name": "_agreementId",
          "type": "uint256"
        }
      ],
      "name": "getLicenseIdByAgreementId",
      "outputs": [
        {
          "internalType": "uint256",
          "name": "",
          "type": "uint256"
        }
      ],
      "stateMutability": "view",
      "type": "function"
    },
    {
      "inputs": [
        {
          "internalType": "uint256",
          "name": "_agreementId",
          "type": "uint256"
        }
      ],
      "name": "getAgreementBuyerAddress",
      "outputs": [
        {
          "internalType": "address",
          "name": "",
          "type": "address"
        }
      ],
      "stateMutability": "view",
      "type": "function"
    }
  ],
  "bytecode": "0x60806040526001805460ff60a01b1916905534801561001d57600080fd5b50600080546001600160a01b0319163390811782558152600260209081526040808320805460ff19166001179055915491516001600160a01b0390921682527f50146d0e3c60aa1d17a70635b05494f864e86144a2201275021014fbf08bafe2910160405180910390a16000546040516001600160a01b0390911681527f7849194239ab1d31b991b5436d81370256505cf25eaafbcccbc66acd118969169060200160405180910390a1610cf6806100d66000396000f3fe608060405234801561001057600080fd5b50600436106101165760003560e01c80638f84aa09116100a2578063e46cdff111610071578063e46cdff11461028a578063f344930d146102b5578063f37f8d6d14610313578063fbd8f88114610336578063fc6f94681461036857600080fd5b80638f84aa0914610203578063bcd153bb1461022e578063cef1f1ac1461024e578063d3ec9b9a1461027757600080fd5b8063704b6c02116100e9578063704b6c02146101925780637bf39a16146101a55780637cd59fec146101c55780638456cb59146101e8578063880cdc31146101f057600080fd5b80630f6326af1461011b5780633d76befd146101515780633f4ba83a146101665780635c975abb1461016e575b600080fd5b61013e610129366004610b58565b60009081526003602052604090206001015490565b6040519081526020015b60405180910390f35b61016461015f366004610b8d565b61037b565b005b6101646103dc565b60015461018290600160a01b900460ff1681565b6040519015158152602001610148565b6101646101a0366004610b8d565b6104ad565b61013e6101b3366004610b58565b60066020526000908152604090205481565b6101826101d3366004610b8d565b60086020526000908152604090205460ff1681565b6101646105f6565b6101646101fe366004610b8d565b6106c2565b600054610216906001600160a01b031681565b6040516001600160a01b039091168152602001610148565b61013e61023c366004610b58565b60056020526000908152604090205481565b61021661025c366004610b58565b6000908152600360205260409020546001600160a01b031690565b61013e610285366004610ba8565b61079b565b61013e610298366004610bea565b600460209081526000928352604080842090915290825290205481565b6102ee6102c3366004610b58565b6003602052600090815260409020805460018201546002909201546001600160a01b03909116919083565b604080516001600160a01b039094168452602084019290925290820152606001610148565b61013e610321366004610b58565b60009081526003602052604090206002015490565b61013e610344366004610b58565b60009081526004602090815260408083206005835281842054845290915290205490565b600154610216906001600160a01b031681565b3360009081526002602052604090205460ff1615156001146103b85760405162461bcd60e51b81526004016103af90610c0c565b60405180910390fd5b6001600160a01b03166000908152600860205260409020805460ff19166001179055565b3360009081526002602052604090205460ff1615156001146104105760405162461bcd60e51b81526004016103af90610c0c565b600154600160a01b900460ff166104755760405162461bcd60e51b815260206004820152602360248201527f416363657373436f6e74726f6c3a2063757272656e6c7479206e6f74207061756044820152621cd95960ea1b60648201526084016103af565b6001805460ff60a01b191690556040517fa45f47fdea8a1efdd9029a5691c7f759c32b7c698632b563573e155625d1693390600090a1565b6000546001600160a01b031633146104d75760405162461bcd60e51b81526004016103af90610c53565b6001600160a01b03811661053b5760405162461bcd60e51b815260206004820152602560248201527f416363657373436f6e74726f6c3a20696e76616c696420776f726b6572206164604482015264647265737360d81b60648201526084016103af565b600180546001600160a01b03908116600090815260026020908152604091829020805460ff1916905592549051911681527f3137a7fedbfedb7895dfa5a6812a4566dae9ded68d00aeec13c6ed1fa84a1c80910160405180910390a1600180546001600160a01b0319166001600160a01b0383169081179091556000819052600260209081526040519182527f7849194239ab1d31b991b5436d81370256505cf25eaafbcccbc66acd1189691691015b60405180910390a150565b3360009081526002602052604090205460ff16151560011461062a5760405162461bcd60e51b81526004016103af90610c0c565b600154600160a01b900460ff16156106845760405162461bcd60e51b815260206004820152601f60248201527f416363657373436f6e74726f6c3a2063757272656e746c79207061757365640060448201526064016103af565b6001805460ff60a01b1916600160a01b1790556040517f9e87fac88ff661f02d44f95383c817fece4bce600a3dab7a54406878b965e75290600090a1565b6000546001600160a01b031633146106ec5760405162461bcd60e51b81526004016103af90610c53565b6001600160a01b03811661074d5760405162461bcd60e51b815260206004820152602260248201527f416363657373436f6e74726f6c3a20696e76616c69642043454f206164647265604482015261737360f01b60648201526084016103af565b600080546001600160a01b0319166001600160a01b0383169081179091556040519081527f50146d0e3c60aa1d17a70635b05494f864e86144a2201275021014fbf08bafe2906020016105eb565b3360008181526008602052604081205490919060ff16151560011461081d5760405162461bcd60e51b815260206004820152603260248201527f41475245454d454e54533a204f4e4c5920415050524f56454420434f4e5452416044820152714354532043414e2053544f5245204441544160701b60648201526084016103af565b61082a87868689876108eb565b60008581526004602090815260408083208984528252808320849055838352600380835281842080546001600160a01b0319166001600160a01b038e16178155600181018c9055898552600584529184208a90559284905291905260020185905591506108978486610956565b604080516001600160a01b0389168152602081018790529081018390527fa393e7f1f84a7422702fc101508cc7bc29ee1521f96b3c3eb09a8ae50c3109069060600160405180910390a15095945050505050565b6040516bffffffffffffffffffffffff19606087901b1660208201526034810185905260548101849052607481018390526094810182905260009060b4016040516020818303038152906040528051906020012060001c905061094d816109f2565b95945050505050565b600081815260066020526040902054600a116109c25760405162461bcd60e51b815260206004820152602560248201527f41475245454d454e54533a2043414e4e4f542048415645203e2031302043484960448201526426222922a760d91b60648201526084016103af565b6000818152600660205260409020546109dc906001610af2565b6000928352600660205260409092209190915550565b60008181526007602052604090205460ff161515600103610a7b5760405162461bcd60e51b815260206004820152603d60248201527f41475245454d454e54533a2061677265656d656e7449642068617320616c726560448201527f616479206265656e2067656e6572617465642c2074727920616761696e00000060648201526084016103af565b80600003610ad75760405162461bcd60e51b815260206004820152602360248201527f41475245454d454e54533a2061677265656d656e7449642043414e4e4f54204260448201526204520360ec1b60648201526084016103af565b6000908152600760205260409020805460ff19166001179055565b600080610aff8385610c9a565b905083811015610b515760405162461bcd60e51b815260206004820152601b60248201527f536166654d6174683a206164646974696f6e206f766572666c6f77000000000060448201526064016103af565b9392505050565b600060208284031215610b6a57600080fd5b5035919050565b80356001600160a01b0381168114610b8857600080fd5b919050565b600060208284031215610b9f57600080fd5b610b5182610b71565b600080600080600060a08688031215610bc057600080fd5b610bc986610b71565b97602087013597506040870135966060810135965060800135945092505050565b60008060408385031215610bfd57600080fd5b50508035926020909101359150565b60208082526027908201527f416363657373436f6e74726f6c3a206d73672e73656e646572206d7573742062604082015266329030b236b4b760c91b606082015260800190565b60208082526027908201527f416363657373436f6e74726f6c3a206d73672e73656e646572206d7573742062604082015266329037bbb732b960c91b606082015260800190565b60008219821115610cbb57634e487b7160e01b600052601160045260246000fd5b50019056fea26469706673582212203b5fb275ccd0aaf72d4685b7a51fb69f333e4e1bdd1c8e4d3c9d2589810b370e64736f6c634300080d0033",
  "immutableReferences": {},
  "source": "//SPDX-License-Identifier: agpl-3.0\r\n//-U+2654-  - 0xRoyalties\r\npragma solidity ^0.8.0;\r\nimport \"../common-contracts/SafeMath.sol\";\r\nimport \"../common-contracts/AccessControl.sol\";\r\n\r\n//ERCs\r\nimport \"../common-contracts/ERC/interfaces/IERC721.sol\";\r\n\r\n\r\n/*\r\n *    ADD INTERFACES!\r\n*/\r\n\r\ncontract LicenseGlobals {\r\n\r\n    ////////////////////////////////////////////////\r\n    //                  VARS                      //\r\n    ////////////////////////////////////////////////\r\n    \r\n        IERC721 licensedToken;\r\n        // enum Exclusivity {EXCLUSIVE, NONEXCLUSIVE}\r\n\r\n        struct License {\r\n            address licenseCreator;\r\n            uint256 tokenId;\r\n            uint256 registeredOn;\r\n            string governingLawJurisdiction;\r\n        }\r\n        \r\n        struct GenericRoyaltyShares {\r\n            uint256 royaltyPercentage1;\r\n            uint256 royaltyPercentage2;\r\n            uint256 royaltyPercentage3;\r\n            uint256 royaltyPercentage4;\r\n            uint256 royaltyPercentage5;\r\n            uint256 royaltyPercentage6;\r\n            uint256 royaltyPercentage7;\r\n            uint256 royaltyPercentage8;\r\n        }\r\n\r\n        // struct RoyaltyPayment {\r\n        //     uint256 invoiceNumber;\r\n        //     RoyaltyType _royaltyType;\r\n        //     uint256 amount;\r\n        //     //uint256 paymentNum;\r\n        // }\r\n\r\n        mapping(uint256 => uint256) internal tokenToLicenseMapping; //tokenId => licenseId\r\n        mapping(uint256 => License) public licenses; //licenses[licenseId]\r\n        mapping(uint256 => GenericRoyaltyShares) public royaltySplits; //royaltySplits[licenseId]\r\n        mapping(uint256 => bool) internal idHasBeenGenerated; //used to check uniqueness of licenseId\r\n\r\n\r\n    ////////////////////////////////////////////////\r\n    //                MODIFIERS                   //\r\n    ////////////////////////////////////////////////\r\n        modifier onlyTokenOwner(uint256 _tokenId, address _msgSender, address _tokenAddress)\r\n        {\r\n            require(_msgSender == IERC721(_tokenAddress).ownerOf(_tokenId),\r\n                    \"LICENSE: ONLY TOKEN OWNER\"\r\n            );\r\n\r\n            _;\r\n        }\r\n        \r\n        modifier checkLicenseExists(uint256 _licenseId)\r\n        {\r\n            require(idHasBeenGenerated[_licenseId] == true,\r\n                    \"LICENSING: licenseId does not exist\"\r\n            );\r\n            \r\n            _;\r\n        }\r\n\r\n    /////////////////////////////////////////////////\r\n    //                 EVENTS                      //\r\n    /////////////////////////////////////////////////\r\n        event LicenseCreated(uint256 tokenId, uint256 licenseId, address licenseCreator);\r\n        event RoyaltySplitsAdded(uint256 tokenId, uint256 licenseId,\r\n            uint256 royaltySplit1, uint256 royaltySplit2, uint256 royaltySplit3, uint256 royaltySplit4,\r\n            uint256 royaltySplit5, uint256 royaltySplit6, uint256 royaltySplit7, uint256 _royaltySplit8\r\n        );\r\n}\r\n\r\ncontract LicenseHelper is LicenseGlobals, AccessController {\r\n    using SafeMath for uint256;\r\n    \r\n    ////////////////////////////////////////////////\r\n    //              GETTER FUNCTIONS              //\r\n    ////////////////////////////////////////////////\r\n        function getLicenseByLicenseId(uint256 _licenseId)\r\n            external\r\n            view\r\n            checkLicenseExists(_licenseId)\r\n            returns(uint256,address,uint256,string memory)\r\n        {\r\n            return(\r\n                licenses[_licenseId].tokenId,\r\n                licenses[_licenseId].licenseCreator,\r\n                licenses[_licenseId].registeredOn,\r\n                licenses[_licenseId].governingLawJurisdiction\r\n            );\r\n        }\r\n        \r\n        function getSpecificRoyaltySplit(uint256 _licenseId, uint8 _royaltyType)\r\n            internal\r\n            view\r\n            checkLicenseExists(_licenseId)\r\n            returns(uint256 requestedSplit)\r\n        {\r\n            uint256[8] memory allSplits = [\r\n                royaltySplits[_licenseId].royaltyPercentage1,\r\n                royaltySplits[_licenseId].royaltyPercentage2,\r\n                royaltySplits[_licenseId].royaltyPercentage3,\r\n                royaltySplits[_licenseId].royaltyPercentage4,\r\n                royaltySplits[_licenseId].royaltyPercentage5,\r\n                royaltySplits[_licenseId].royaltyPercentage6,\r\n                royaltySplits[_licenseId].royaltyPercentage7,\r\n                royaltySplits[_licenseId].royaltyPercentage8\r\n            ];\r\n\r\n            requestedSplit = allSplits[_royaltyType];\r\n        }\r\n\r\n        function getTokenIdFromLicenseId(uint256 _licenseId)\r\n            external\r\n            view\r\n            returns(uint256 _tokenId)\r\n        {\r\n            _tokenId = licenses[_licenseId].tokenId;\r\n        }\r\n\r\n        function getLicenseIdFromTokenId(uint256 _tokenId)\r\n            public\r\n            view\r\n            returns(uint256 licenseId)\r\n        {\r\n            licenseId = tokenToLicenseMapping[_tokenId];\r\n        }\r\n        \r\n        function hasValidLicense(uint256 _tokenId)\r\n            external\r\n            view\r\n            returns(bool)\r\n        {\r\n            return(idHasBeenGenerated[tokenToLicenseMapping[_tokenId]]);\r\n        }\r\n\r\n    ////////////////////////////////////////////////\r\n    //              HELPER FUNCTIONS              //\r\n    ////////////////////////////////////////////////\r\n        function generateId(\r\n            address _senderAddr,\r\n            uint256 _tokenId,\r\n            uint256 _timestamp\r\n        )\r\n            internal\r\n            returns(uint256 _licenseId)\r\n        {\r\n            _licenseId = uint256(\r\n                keccak256(\r\n                    abi.encodePacked(_senderAddr, _tokenId, _timestamp)\r\n                )\r\n            );\r\n\r\n            checkIdUniqueness(_licenseId);\r\n        }\r\n\r\n        function checkIdUniqueness(uint256 _licenseId)\r\n            internal\r\n        {\r\n            require(idHasBeenGenerated[_licenseId] != true,\r\n                \"LICENSING: ID has already been generated, try again\"\r\n            );\r\n\r\n            idHasBeenGenerated[_licenseId] = true;\r\n        }\r\n        \r\n        function verifyIdExists(uint256 _licenseId)\r\n            public\r\n            view\r\n            returns(bool)\r\n        {\r\n            return(idHasBeenGenerated[_licenseId]);\r\n        }\r\n\r\n    ////////////////////////////////////////////////\r\n    //             ROYALTY FUNCTIONS              //\r\n    ////////////////////////////////////////////////\r\n        function calcRoyaltyPayment(\r\n            uint256 _licenseId,\r\n            uint256 _amountAfterFees,\r\n            uint8 _royaltyType\r\n        )\r\n            public\r\n            view\r\n            returns(uint256 pmtAmount)\r\n        {\r\n            pmtAmount = _amountAfterFees.mul(getSpecificRoyaltySplit(_licenseId, _royaltyType)).div(100);\r\n        }\r\n}\r\n\r\ncontract ManageLicense is LicenseHelper {\r\n\r\n     ////////////////////////////////////////////////\r\n     //        MANAGE A LICENSE FUNCTIONS         //\r\n    ////////////////////////////////////////////////\r\n            //ALL LICENSES DEFAULT TO US JURISDICTION\r\n        function createTokenLicense(\r\n            uint256 _tokenId,\r\n            address _msgSender,\r\n            address _tokenAddress,\r\n            uint256 _royaltySplit1,\r\n            uint256 _royaltySplit2,\r\n            uint256 _royaltySplit3,\r\n            uint256 _royaltySplit4,\r\n            uint256 _royaltySplit5,\r\n            uint256 _royaltySplit6,\r\n            uint256 _royaltySplit7,\r\n            uint256 _royaltySplit8\r\n        )\r\n            public\r\n            onlyTokenOwner(_tokenId, _msgSender, _tokenAddress)\r\n            whenNotPaused\r\n            returns(uint256 _licenseId)\r\n        {\r\n            _licenseId = _createALicense(_tokenId);\r\n\r\n            _addGenericRoyaltySplits(\r\n                _tokenId,\r\n                _licenseId,\r\n                _royaltySplit1,\r\n                _royaltySplit2,\r\n                _royaltySplit3,\r\n                _royaltySplit4,\r\n                _royaltySplit5,\r\n                _royaltySplit6,\r\n                _royaltySplit7,\r\n                _royaltySplit8\r\n            );\r\n        }\r\n\r\n        function _addGenericRoyaltySplits(\r\n            uint256 _tokenId,\r\n            uint256 _licenseId,\r\n            uint256 _royaltySplit1,\r\n            uint256 _royaltySplit2,\r\n            uint256 _royaltySplit3,\r\n            uint256 _royaltySplit4,\r\n            uint256 _royaltySplit5,\r\n            uint256 _royaltySplit6,\r\n            uint256 _royaltySplit7,\r\n            uint256 _royaltySplit8\r\n        )\r\n            internal\r\n        {\r\n            _checkRoyaltySplit(_royaltySplit1);\r\n            _checkRoyaltySplit(_royaltySplit2);\r\n            _checkRoyaltySplit(_royaltySplit3);\r\n            _checkRoyaltySplit(_royaltySplit4);\r\n            _checkRoyaltySplit(_royaltySplit5);\r\n            _checkRoyaltySplit(_royaltySplit6);\r\n            _checkRoyaltySplit(_royaltySplit7);\r\n            _checkRoyaltySplit(_royaltySplit8);\r\n            \r\n            royaltySplits[_licenseId].royaltyPercentage1 = _royaltySplit1;\r\n            royaltySplits[_licenseId].royaltyPercentage2 = _royaltySplit2;\r\n            royaltySplits[_licenseId].royaltyPercentage3 = _royaltySplit3;\r\n            royaltySplits[_licenseId].royaltyPercentage4 = _royaltySplit4;\r\n            royaltySplits[_licenseId].royaltyPercentage5 = _royaltySplit5;\r\n            royaltySplits[_licenseId].royaltyPercentage6 = _royaltySplit6;\r\n            royaltySplits[_licenseId].royaltyPercentage7 = _royaltySplit7;\r\n            royaltySplits[_licenseId].royaltyPercentage8 = _royaltySplit8;\r\n\r\n            emit RoyaltySplitsAdded(\r\n                _tokenId,\r\n                _licenseId,\r\n                _royaltySplit1,\r\n                _royaltySplit2,\r\n                _royaltySplit3, \r\n                _royaltySplit4,\r\n                _royaltySplit5,\r\n                _royaltySplit6,\r\n                _royaltySplit7,\r\n                _royaltySplit8\r\n            );\r\n        }\r\n        \r\n        function _checkRoyaltySplit(uint256 _royaltySplitInput)\r\n            internal\r\n            pure\r\n        {\r\n            require(_royaltySplitInput <= 100,\r\n                    \"LICENSING: INVALID ROYALTY SPLIT\");\r\n        }\r\n\r\n        function _createALicense(uint256 _tokenId)\r\n            internal\r\n            returns(uint256 _licenseId)\r\n        {\r\n            _licenseId = generateId(\r\n                msg.sender,\r\n                _tokenId,\r\n                block.timestamp\r\n            );\r\n            \r\n            licenses[_licenseId].tokenId = _tokenId;\r\n            licenses[_licenseId].licenseCreator = msg.sender;\r\n            licenses[_licenseId].registeredOn = block.timestamp;\r\n            licenses[_licenseId].governingLawJurisdiction = \"US\";\r\n\r\n            tokenToLicenseMapping[_tokenId] = (_licenseId);\r\n            emit LicenseCreated(_tokenId, _licenseId, msg.sender);\r\n        }\r\n\r\n        //will only update current license gov juris value\r\n        function updateGoverningJurisdiction(\r\n            uint256 _tokenId,\r\n            address _msgSender,\r\n            address _tokenAddress,\r\n            string memory _newJuridiction\r\n        )\r\n            public\r\n            onlyTokenOwner(getLicenseIdFromTokenId(_tokenId), _msgSender, _tokenAddress)\r\n            whenNotPaused\r\n        {\r\n            require(bytes(_newJuridiction).length != 0,\r\n                    \"LICENSE: cannot submit empty Jurisdiction\"\r\n            );\r\n\r\n            licenses[getLicenseIdFromTokenId(_tokenId)].governingLawJurisdiction = _newJuridiction;\r\n        }\r\n\r\n        /*\r\n                PLEASE UPDATE BY CREATING A NEW LICENSE WITH SAME TOKEN ID\r\n        */\r\n}\r\n\r\ncontract TokenLicensing is ManageLicense {\r\n\r\n    ////////////////////////////////////////////////\r\n    //                  CORE                      //\r\n    ////////////////////////////////////////////////\r\n        constructor(\r\n            address payable licensedTokenAddr\r\n        )\r\n            payable \r\n        {\r\n            licensedToken = IERC721(licensedTokenAddr);\r\n        }\r\n\r\n        receive() external payable {\r\n            //revert to prevent accidental value lock\r\n            revert(\"NO PMTS TO TOKEN LICENSING\");\r\n        }   \r\n}\r\n\r\n\r\n\r\n\r\ncontract LicenseAgreements is AccessController{\r\n    using SafeMath for uint256;\r\n\r\n    ////////////////////////////////////////////////\r\n    //                  VARS                      //\r\n    ////////////////////////////////////////////////\r\n        struct Agreement {\r\n            address buyerAddr;\r\n            uint256 licenseId;\r\n            uint256 childTokenId;\r\n        }\r\n\r\n        mapping(uint256 => Agreement) public agreementDetails;              //agreementDetails[agreementId] => Agreement struct\r\n        mapping(uint256 => mapping(uint256 => uint256)) public agreements;  //agreements[_childTokenId][_parentTokenId] => agreementId\r\n\r\n        mapping(uint256 => uint256) public tokenLineage;                    //tokenLineage[_newlyMintedTokenId] => parentTokenId aka base token aka original token\r\n        mapping(uint256 => uint256) public tokenGenerationNumber;           //tokenGenerationNumber[tokenId] => generation counter\r\n\r\n        mapping(uint256 => bool) internal agreementIdHasBeenGenerated;         //agreementIdHasBeenGenerated[_agreementId] => true/false\r\n        mapping(address => bool) public approvedAgreementMakerContracts;     //only licenseMarketplace can create agreements\r\n\r\n        event AgreementSigned(address buyer, uint256 tokenId, uint256 agreementId);\r\n\r\n        modifier onlyApprovedAgreementMaker(address _msgSender)\r\n        {\r\n            require(approvedAgreementMakerContracts[_msgSender] == true,\r\n                    \"AGREEMENTS: ONLY APPROVED CONTRACTS CAN STORE DATA\"\r\n            );\r\n\r\n            _;\r\n        }\r\n\r\n    ////////////////////////////////////////////////\r\n    //           ADMIN SETUP FUNCTION             //\r\n    ////////////////////////////////////////////////\r\n        function approveAgreementMaker(address _approvedAgreementMaker)\r\n            external\r\n            onlyAdmin\r\n        {\r\n            approvedAgreementMakerContracts[_approvedAgreementMaker] = true;\r\n        }\r\n\r\n    ////////////////////////////////////////////////\r\n    //                  CORE                      //\r\n    ////////////////////////////////////////////////\r\n        function signAgreement(address _buyerAddr, uint256 _licenseId, uint256 _tokenId, uint256 _childTokenId, uint256 _timestamp)\r\n            public\r\n            onlyApprovedAgreementMaker(msg.sender)\r\n            returns(uint256 _agreementId)\r\n        {\r\n            _agreementId =  generateAgreementId(\r\n                                _buyerAddr,\r\n                                _tokenId,\r\n                                _childTokenId,\r\n                                _licenseId,\r\n                                _timestamp\r\n                            );\r\n            \r\n            agreements[_childTokenId][_tokenId] = _agreementId;\r\n            agreementDetails[_agreementId].buyerAddr = _buyerAddr;\r\n            agreementDetails[_agreementId].licenseId = _licenseId;\r\n            \r\n            //CHILD TOKEN DETAILS\r\n            tokenLineage[_childTokenId] = _tokenId;\r\n            agreementDetails[_agreementId].childTokenId = _childTokenId;\r\n            \r\n            _updateTokenGeneration(_childTokenId, _tokenId);\r\n            \r\n            emit AgreementSigned(_buyerAddr, _tokenId, _agreementId);\r\n        }\r\n\r\n        function _updateTokenGeneration(uint256 _childTokenId, uint256 _parentTokenId)\r\n            internal\r\n        {\r\n            require(tokenGenerationNumber[_parentTokenId] < 10,\r\n                    \"AGREEMENTS: CANNOT HAVE > 10 CHILDREN\"\r\n            );\r\n            \r\n            tokenGenerationNumber[_childTokenId] = tokenGenerationNumber[_parentTokenId].add(1);\r\n        }\r\n\r\n    ////////////////////////////////////////////////\r\n    //              GETTER FUNCTIONS              //\r\n    ////////////////////////////////////////////////\r\n        function getAgreementId(uint256 _childTokenId)\r\n            external\r\n            view\r\n            returns(uint256 agreementId)\r\n        {\r\n            agreementId = agreements[_childTokenId][tokenLineage[_childTokenId]];\r\n        }\r\n\r\n        function getChildTokenId(uint256 _agreementId)\r\n            external\r\n            view\r\n            returns(uint256)\r\n        {\r\n            return(agreementDetails[_agreementId].childTokenId);\r\n        }\r\n\r\n        function getLicenseIdByAgreementId(uint256 _agreementId)\r\n            external\r\n            view\r\n            returns(uint256)\r\n        {\r\n            return(agreementDetails[_agreementId].licenseId);\r\n        }        \r\n\r\n        function getAgreementBuyerAddress(uint256 _agreementId)\r\n            external\r\n            view\r\n            returns(address)\r\n        {\r\n            return(agreementDetails[_agreementId].buyerAddr);\r\n        }\r\n\r\n    ////////////////////////////////////////////////\r\n    //              HELPER FUNCTIONS              //\r\n    ////////////////////////////////////////////////\r\n        function generateAgreementId(\r\n            address _senderAddr,\r\n            uint256 _tokenId,\r\n            uint256 _childTokenId,\r\n            uint256 _licenseId,\r\n            uint256 _timestamp\r\n        )\r\n            internal\r\n            returns(uint256 agreementId)\r\n        {\r\n            agreementId = uint256(\r\n                keccak256(\r\n                    abi.encodePacked(_senderAddr, _tokenId, _childTokenId, _licenseId, _timestamp)\r\n                )\r\n            );\r\n\r\n            checkIdUniqueness(agreementId);\r\n        }\r\n\r\n        function checkIdUniqueness(uint256 agreementId)\r\n            internal\r\n        {\r\n            require(agreementIdHasBeenGenerated[agreementId] != true,\r\n                   \"AGREEMENTS: agreementId has already been generated, try again\"\r\n            );\r\n            \r\n            require(agreementId != 0,\r\n                    \"AGREEMENTS: agreementId CANNOT BE 0\"\r\n            );\r\n\r\n            agreementIdHasBeenGenerated[agreementId] = true;\r\n        }\r\n}\r\n\r\n\r\n\r\ncontract xrRegistry is AccessController{\r\n\r\n    /*\r\n    * TOKEN MANAGEMENT\r\n    *   Will be used as:\r\n    *   tokenManager[msg.sender] to return NFT address to use to get token for licensing + minting.\r\n    */\r\n    mapping(address => address) tokenManager; //tokenManager[myProjectsContractAddress] => nftAddress\r\n\r\n    //REGISTRATION MANAGEMENT\r\n    mapping(address => bool) private isRegistered; //isRegistered[MyProjectsContractAddress] => true/false - only updated here\r\n\r\n    address RoyaltyNFT;\r\n    mapping(address => address) registeredContractAdminAddress; //registeredContractAdminAddress[msg.sender] = registered contract addr\r\n\r\n    //registering without a token defaults to the generic RoyaltyNFT provided by 0xR\r\n    function register(\r\n        address _candidateAddress\r\n    )\r\n        public\r\n        payable\r\n    {\r\n        //charge .025ETH registration fee\r\n            //send to 0xR revenue sharing contract\r\n\r\n        tokenManager[_candidateAddress] = RoyaltyNFT;\r\n\r\n        isRegistered[_candidateAddress] = true;\r\n\r\n        updateContractController(msg.sender, _candidateAddress);\r\n    }\r\n\r\n    function register(\r\n        address _candidateAddress,\r\n        address _tokenCandidateAddress\r\n    )\r\n        public\r\n        payable\r\n    {\r\n        //charge .025ETH registration fee\r\n            //send to 0xR revenue sharing contract\r\n\r\n        registerToken(\r\n            _candidateAddress,\r\n            _tokenCandidateAddress    \r\n        );\r\n\r\n        isRegistered[_candidateAddress] = true;\r\n        updateContractController(msg.sender, _candidateAddress);\r\n    }\r\n\r\n    function registerToken(\r\n        address _candidateAddress,\r\n        address _tokenCandidateAddress\r\n    )\r\n        internal\r\n    {\r\n                //check token meets requirements:\r\n                    //implicitly requiring ERC165 implementation?\r\n            //require is ERC721\r\n            //require is ERC21 Minting\r\n            //require is ERC721 Metadata\r\n\r\n            tokenManager[_candidateAddress] = _tokenCandidateAddress;\r\n    }\r\n\r\n    function updateContractController(\r\n        address _msgSender,\r\n        address _registeredContract\r\n    )\r\n        internal\r\n    {\r\n        registeredContractAdminAddress[_msgSender] = _registeredContract;\r\n    }\r\n\r\n    function updateTokenForRegisteredContract(\r\n        address _registeredContractAddr,\r\n        address _newTokenAddr\r\n    )\r\n        external\r\n    {\r\n        require(registeredContractAdminAddress[msg.sender] == _registeredContractAddr);\r\n\r\n        tokenManager[_registeredContractAddr] = _newTokenAddr;\r\n    }\r\n\r\n\r\n    function isSenderRegistered(address _queriedAddress)\r\n        public\r\n        view\r\n        returns(bool)\r\n    {\r\n        return(isRegistered[_queriedAddress]);\r\n    }\r\n\r\n}\r\n",
  "sourcePath": "C:\\dev\\0xRoyaltiesUnofficial\\contracts\\flat-contracts\\0xR_flat.sol",
  "compiler": {
    "name": "solc",
    "version": "0.8.13+commit.abaa5c0e.Emscripten.clang"
  },
  "schemaVersion": "3.4.7",
  "updatedAt": "2022-05-01T23:26:15.815Z",
  "devdoc": {
    "kind": "dev",
    "methods": {},
    "version": 1
  },
  "userdoc": {
    "kind": "user",
    "methods": {},
    "version": 1
  }
}