{
  "contractName": "LicenseGlobals",
  "abi": [
    {
      "anonymous": false,
      "inputs": [
        {
          "indexed": false,
          "internalType": "uint256",
          "name": "tokenId",
          "type": "uint256"
        },
        {
          "indexed": false,
          "internalType": "uint256",
          "name": "licenseId",
          "type": "uint256"
        },
        {
          "indexed": false,
          "internalType": "address",
          "name": "licenseCreator",
          "type": "address"
        }
      ],
      "name": "LicenseCreated",
      "type": "event"
    },
    {
      "anonymous": false,
      "inputs": [
        {
          "indexed": false,
          "internalType": "uint256",
          "name": "tokenId",
          "type": "uint256"
        },
        {
          "indexed": false,
          "internalType": "uint256",
          "name": "licenseId",
          "type": "uint256"
        },
        {
          "indexed": false,
          "internalType": "uint256",
          "name": "royaltySplit1",
          "type": "uint256"
        },
        {
          "indexed": false,
          "internalType": "uint256",
          "name": "royaltySplit2",
          "type": "uint256"
        },
        {
          "indexed": false,
          "internalType": "uint256",
          "name": "royaltySplit3",
          "type": "uint256"
        },
        {
          "indexed": false,
          "internalType": "uint256",
          "name": "royaltySplit4",
          "type": "uint256"
        },
        {
          "indexed": false,
          "internalType": "uint256",
          "name": "royaltySplit5",
          "type": "uint256"
        },
        {
          "indexed": false,
          "internalType": "uint256",
          "name": "royaltySplit6",
          "type": "uint256"
        },
        {
          "indexed": false,
          "internalType": "uint256",
          "name": "royaltySplit7",
          "type": "uint256"
        },
        {
          "indexed": false,
          "internalType": "uint256",
          "name": "_royaltySplit8",
          "type": "uint256"
        }
      ],
      "name": "RoyaltySplitsAdded",
      "type": "event"
    },
    {
      "inputs": [
        {
          "internalType": "uint256",
          "name": "",
          "type": "uint256"
        }
      ],
      "name": "licenses",
      "outputs": [
        {
          "internalType": "address",
          "name": "licenseCreator",
          "type": "address"
        },
        {
          "internalType": "uint256",
          "name": "tokenId",
          "type": "uint256"
        },
        {
          "internalType": "uint256",
          "name": "registeredOn",
          "type": "uint256"
        },
        {
          "internalType": "string",
          "name": "governingLawJurisdiction",
          "type": "string"
        }
      ],
      "stateMutability": "view",
      "type": "function"
    },
    {
      "inputs": [
        {
          "internalType": "uint256",
          "name": "",
          "type": "uint256"
        }
      ],
      "name": "royaltySplits",
      "outputs": [
        {
          "internalType": "uint256",
          "name": "royaltyPercentage1",
          "type": "uint256"
        },
        {
          "internalType": "uint256",
          "name": "royaltyPercentage2",
          "type": "uint256"
        },
        {
          "internalType": "uint256",
          "name": "royaltyPercentage3",
          "type": "uint256"
        },
        {
          "internalType": "uint256",
          "name": "royaltyPercentage4",
          "type": "uint256"
        },
        {
          "internalType": "uint256",
          "name": "royaltyPercentage5",
          "type": "uint256"
        },
        {
          "internalType": "uint256",
          "name": "royaltyPercentage6",
          "type": "uint256"
        },
        {
          "internalType": "uint256",
          "name": "royaltyPercentage7",
          "type": "uint256"
        },
        {
          "internalType": "uint256",
          "name": "royaltyPercentage8",
          "type": "uint256"
        }
      ],
      "stateMutability": "view",
      "type": "function"
    }
  ],
  "bytecode": "0x608060405234801561001057600080fd5b506102b2806100206000396000f3fe608060405234801561001057600080fd5b50600436106100365760003560e01c8063337908451461003b57806384b3d9fd14610067575b600080fd5b61004e6100493660046101b5565b6100f8565b60405161005e94939291906101ce565b60405180910390f35b6100bd6100753660046101b5565b60036020528060005260406000206000915090508060000154908060010154908060020154908060030154908060040154908060050154908060060154908060070154905088565b604080519889526020890197909752958701949094526060860192909252608085015260a084015260c083015260e08201526101000161005e565b600260208190526000918252604090912080546001820154928201546003830180546001600160a01b039093169493919261013290610242565b80601f016020809104026020016040519081016040528092919081815260200182805461015e90610242565b80156101ab5780601f10610180576101008083540402835291602001916101ab565b820191906000526020600020905b81548152906001019060200180831161018e57829003601f168201915b5050505050905084565b6000602082840312156101c757600080fd5b5035919050565b6001600160a01b038516815260006020858184015284604084015260806060840152835180608085015260005b818110156102175785810183015185820160a0015282016101fb565b8181111561022957600060a083870101525b50601f01601f19169290920160a0019695505050505050565b600181811c9082168061025657607f821691505b60208210810361027657634e487b7160e01b600052602260045260246000fd5b5091905056fea26469706673582212200a653300c367f8587d06a58b8a2e545bd7c1ec168df39952abe0b7c4a863e64d64736f6c634300080d0033",
  "immutableReferences": {},
  "source": "//SPDX-License-Identifier: agpl-3.0\r\n//-U+2654-  - 0xRoyalties\r\npragma solidity ^0.8.0;\r\nimport \"../common-contracts/SafeMath.sol\";\r\nimport \"../common-contracts/AccessControl.sol\";\r\n\r\n//ERCs\r\nimport \"../common-contracts/ERC/interfaces/IERC721.sol\";\r\n\r\n\r\n/*\r\n *    ADD INTERFACES!\r\n*/\r\n\r\ncontract LicenseGlobals {\r\n\r\n    ////////////////////////////////////////////////\r\n    //                  VARS                      //\r\n    ////////////////////////////////////////////////\r\n    \r\n        IERC721 licensedToken;\r\n        // enum Exclusivity {EXCLUSIVE, NONEXCLUSIVE}\r\n\r\n        struct License {\r\n            address licenseCreator;\r\n            uint256 tokenId;\r\n            uint256 registeredOn;\r\n            string governingLawJurisdiction;\r\n        }\r\n        \r\n        struct GenericRoyaltyShares {\r\n            uint256 royaltyPercentage1;\r\n            uint256 royaltyPercentage2;\r\n            uint256 royaltyPercentage3;\r\n            uint256 royaltyPercentage4;\r\n            uint256 royaltyPercentage5;\r\n            uint256 royaltyPercentage6;\r\n            uint256 royaltyPercentage7;\r\n            uint256 royaltyPercentage8;\r\n        }\r\n\r\n        // struct RoyaltyPayment {\r\n        //     uint256 invoiceNumber;\r\n        //     RoyaltyType _royaltyType;\r\n        //     uint256 amount;\r\n        //     //uint256 paymentNum;\r\n        // }\r\n\r\n        mapping(uint256 => uint256) internal tokenToLicenseMapping; //tokenId => licenseId\r\n        mapping(uint256 => License) public licenses; //licenses[licenseId]\r\n        mapping(uint256 => GenericRoyaltyShares) public royaltySplits; //royaltySplits[licenseId]\r\n        mapping(uint256 => bool) internal idHasBeenGenerated; //used to check uniqueness of licenseId\r\n\r\n\r\n    ////////////////////////////////////////////////\r\n    //                MODIFIERS                   //\r\n    ////////////////////////////////////////////////\r\n        modifier onlyTokenOwner(uint256 _tokenId, address _msgSender, address _tokenAddress)\r\n        {\r\n            require(_msgSender == IERC721(_tokenAddress).ownerOf(_tokenId),\r\n                    \"LICENSE: ONLY TOKEN OWNER\"\r\n            );\r\n\r\n            _;\r\n        }\r\n        \r\n        modifier checkLicenseExists(uint256 _licenseId)\r\n        {\r\n            require(idHasBeenGenerated[_licenseId] == true,\r\n                    \"LICENSING: licenseId does not exist\"\r\n            );\r\n            \r\n            _;\r\n        }\r\n\r\n    /////////////////////////////////////////////////\r\n    //                 EVENTS                      //\r\n    /////////////////////////////////////////////////\r\n        event LicenseCreated(uint256 tokenId, uint256 licenseId, address licenseCreator);\r\n        event RoyaltySplitsAdded(uint256 tokenId, uint256 licenseId,\r\n            uint256 royaltySplit1, uint256 royaltySplit2, uint256 royaltySplit3, uint256 royaltySplit4,\r\n            uint256 royaltySplit5, uint256 royaltySplit6, uint256 royaltySplit7, uint256 _royaltySplit8\r\n        );\r\n}\r\n\r\ncontract LicenseHelper is LicenseGlobals, AccessController {\r\n    using SafeMath for uint256;\r\n    \r\n    ////////////////////////////////////////////////\r\n    //              GETTER FUNCTIONS              //\r\n    ////////////////////////////////////////////////\r\n        function getLicenseByLicenseId(uint256 _licenseId)\r\n            external\r\n            view\r\n            checkLicenseExists(_licenseId)\r\n            returns(uint256,address,uint256,string memory)\r\n        {\r\n            return(\r\n                licenses[_licenseId].tokenId,\r\n                licenses[_licenseId].licenseCreator,\r\n                licenses[_licenseId].registeredOn,\r\n                licenses[_licenseId].governingLawJurisdiction\r\n            );\r\n        }\r\n        \r\n        function getSpecificRoyaltySplit(uint256 _licenseId, uint8 _royaltyType)\r\n            internal\r\n            view\r\n            checkLicenseExists(_licenseId)\r\n            returns(uint256 requestedSplit)\r\n        {\r\n            uint256[8] memory allSplits = [\r\n                royaltySplits[_licenseId].royaltyPercentage1,\r\n                royaltySplits[_licenseId].royaltyPercentage2,\r\n                royaltySplits[_licenseId].royaltyPercentage3,\r\n                royaltySplits[_licenseId].royaltyPercentage4,\r\n                royaltySplits[_licenseId].royaltyPercentage5,\r\n                royaltySplits[_licenseId].royaltyPercentage6,\r\n                royaltySplits[_licenseId].royaltyPercentage7,\r\n                royaltySplits[_licenseId].royaltyPercentage8\r\n            ];\r\n\r\n            requestedSplit = allSplits[_royaltyType];\r\n        }\r\n\r\n        function getTokenIdFromLicenseId(uint256 _licenseId)\r\n            external\r\n            view\r\n            returns(uint256 _tokenId)\r\n        {\r\n            _tokenId = licenses[_licenseId].tokenId;\r\n        }\r\n\r\n        function getLicenseIdFromTokenId(uint256 _tokenId)\r\n            public\r\n            view\r\n            returns(uint256 licenseId)\r\n        {\r\n            licenseId = tokenToLicenseMapping[_tokenId];\r\n        }\r\n        \r\n        function hasValidLicense(uint256 _tokenId)\r\n            external\r\n            view\r\n            returns(bool)\r\n        {\r\n            return(idHasBeenGenerated[tokenToLicenseMapping[_tokenId]]);\r\n        }\r\n\r\n    ////////////////////////////////////////////////\r\n    //              HELPER FUNCTIONS              //\r\n    ////////////////////////////////////////////////\r\n        function generateId(\r\n            address _senderAddr,\r\n            uint256 _tokenId,\r\n            uint256 _timestamp\r\n        )\r\n            internal\r\n            returns(uint256 _licenseId)\r\n        {\r\n            _licenseId = uint256(\r\n                keccak256(\r\n                    abi.encodePacked(_senderAddr, _tokenId, _timestamp)\r\n                )\r\n            );\r\n\r\n            checkIdUniqueness(_licenseId);\r\n        }\r\n\r\n        function checkIdUniqueness(uint256 _licenseId)\r\n            internal\r\n        {\r\n            require(idHasBeenGenerated[_licenseId] != true,\r\n                \"LICENSING: ID has already been generated, try again\"\r\n            );\r\n\r\n            idHasBeenGenerated[_licenseId] = true;\r\n        }\r\n        \r\n        function verifyIdExists(uint256 _licenseId)\r\n            public\r\n            view\r\n            returns(bool)\r\n        {\r\n            return(idHasBeenGenerated[_licenseId]);\r\n        }\r\n\r\n    ////////////////////////////////////////////////\r\n    //             ROYALTY FUNCTIONS              //\r\n    ////////////////////////////////////////////////\r\n        function calcRoyaltyPayment(\r\n            uint256 _licenseId,\r\n            uint256 _amountAfterFees,\r\n            uint8 _royaltyType\r\n        )\r\n            public\r\n            view\r\n            returns(uint256 pmtAmount)\r\n        {\r\n            pmtAmount = _amountAfterFees.mul(getSpecificRoyaltySplit(_licenseId, _royaltyType)).div(100);\r\n        }\r\n}\r\n\r\ncontract ManageLicense is LicenseHelper {\r\n\r\n     ////////////////////////////////////////////////\r\n     //        MANAGE A LICENSE FUNCTIONS         //\r\n    ////////////////////////////////////////////////\r\n            //ALL LICENSES DEFAULT TO US JURISDICTION\r\n        function createTokenLicense(\r\n            uint256 _tokenId,\r\n            address _msgSender,\r\n            address _tokenAddress,\r\n            uint256 _royaltySplit1,\r\n            uint256 _royaltySplit2,\r\n            uint256 _royaltySplit3,\r\n            uint256 _royaltySplit4,\r\n            uint256 _royaltySplit5,\r\n            uint256 _royaltySplit6,\r\n            uint256 _royaltySplit7,\r\n            uint256 _royaltySplit8\r\n        )\r\n            public\r\n            onlyTokenOwner(_tokenId, _msgSender, _tokenAddress)\r\n            whenNotPaused\r\n            returns(uint256 _licenseId)\r\n        {\r\n            _licenseId = _createALicense(_tokenId);\r\n\r\n            _addGenericRoyaltySplits(\r\n                _tokenId,\r\n                _licenseId,\r\n                _royaltySplit1,\r\n                _royaltySplit2,\r\n                _royaltySplit3,\r\n                _royaltySplit4,\r\n                _royaltySplit5,\r\n                _royaltySplit6,\r\n                _royaltySplit7,\r\n                _royaltySplit8\r\n            );\r\n        }\r\n\r\n        function _addGenericRoyaltySplits(\r\n            uint256 _tokenId,\r\n            uint256 _licenseId,\r\n            uint256 _royaltySplit1,\r\n            uint256 _royaltySplit2,\r\n            uint256 _royaltySplit3,\r\n            uint256 _royaltySplit4,\r\n            uint256 _royaltySplit5,\r\n            uint256 _royaltySplit6,\r\n            uint256 _royaltySplit7,\r\n            uint256 _royaltySplit8\r\n        )\r\n            internal\r\n        {\r\n            _checkRoyaltySplit(_royaltySplit1);\r\n            _checkRoyaltySplit(_royaltySplit2);\r\n            _checkRoyaltySplit(_royaltySplit3);\r\n            _checkRoyaltySplit(_royaltySplit4);\r\n            _checkRoyaltySplit(_royaltySplit5);\r\n            _checkRoyaltySplit(_royaltySplit6);\r\n            _checkRoyaltySplit(_royaltySplit7);\r\n            _checkRoyaltySplit(_royaltySplit8);\r\n            \r\n            royaltySplits[_licenseId].royaltyPercentage1 = _royaltySplit1;\r\n            royaltySplits[_licenseId].royaltyPercentage2 = _royaltySplit2;\r\n            royaltySplits[_licenseId].royaltyPercentage3 = _royaltySplit3;\r\n            royaltySplits[_licenseId].royaltyPercentage4 = _royaltySplit4;\r\n            royaltySplits[_licenseId].royaltyPercentage5 = _royaltySplit5;\r\n            royaltySplits[_licenseId].royaltyPercentage6 = _royaltySplit6;\r\n            royaltySplits[_licenseId].royaltyPercentage7 = _royaltySplit7;\r\n            royaltySplits[_licenseId].royaltyPercentage8 = _royaltySplit8;\r\n\r\n            emit RoyaltySplitsAdded(\r\n                _tokenId,\r\n                _licenseId,\r\n                _royaltySplit1,\r\n                _royaltySplit2,\r\n                _royaltySplit3, \r\n                _royaltySplit4,\r\n                _royaltySplit5,\r\n                _royaltySplit6,\r\n                _royaltySplit7,\r\n                _royaltySplit8\r\n            );\r\n        }\r\n        \r\n        function _checkRoyaltySplit(uint256 _royaltySplitInput)\r\n            internal\r\n            pure\r\n        {\r\n            require(_royaltySplitInput <= 100,\r\n                    \"LICENSING: INVALID ROYALTY SPLIT\");\r\n        }\r\n\r\n        function _createALicense(uint256 _tokenId)\r\n            internal\r\n            returns(uint256 _licenseId)\r\n        {\r\n            _licenseId = generateId(\r\n                msg.sender,\r\n                _tokenId,\r\n                block.timestamp\r\n            );\r\n            \r\n            licenses[_licenseId].tokenId = _tokenId;\r\n            licenses[_licenseId].licenseCreator = msg.sender;\r\n            licenses[_licenseId].registeredOn = block.timestamp;\r\n            licenses[_licenseId].governingLawJurisdiction = \"US\";\r\n\r\n            tokenToLicenseMapping[_tokenId] = (_licenseId);\r\n            emit LicenseCreated(_tokenId, _licenseId, msg.sender);\r\n        }\r\n\r\n        //will only update current license gov juris value\r\n        function updateGoverningJurisdiction(\r\n            uint256 _tokenId,\r\n            address _msgSender,\r\n            address _tokenAddress,\r\n            string memory _newJuridiction\r\n        )\r\n            public\r\n            onlyTokenOwner(getLicenseIdFromTokenId(_tokenId), _msgSender, _tokenAddress)\r\n            whenNotPaused\r\n        {\r\n            require(bytes(_newJuridiction).length != 0,\r\n                    \"LICENSE: cannot submit empty Jurisdiction\"\r\n            );\r\n\r\n            licenses[getLicenseIdFromTokenId(_tokenId)].governingLawJurisdiction = _newJuridiction;\r\n        }\r\n\r\n        /*\r\n                PLEASE UPDATE BY CREATING A NEW LICENSE WITH SAME TOKEN ID\r\n        */\r\n}\r\n\r\ncontract TokenLicensing is ManageLicense {\r\n\r\n    ////////////////////////////////////////////////\r\n    //                  CORE                      //\r\n    ////////////////////////////////////////////////\r\n        constructor(\r\n            address payable licensedTokenAddr\r\n        )\r\n            payable \r\n        {\r\n            licensedToken = IERC721(licensedTokenAddr);\r\n        }\r\n\r\n        receive() external payable {\r\n            //revert to prevent accidental value lock\r\n            revert(\"NO PMTS TO TOKEN LICENSING\");\r\n        }   \r\n}\r\n\r\n\r\n\r\n\r\ncontract LicenseAgreements is AccessController{\r\n    using SafeMath for uint256;\r\n\r\n    ////////////////////////////////////////////////\r\n    //                  VARS                      //\r\n    ////////////////////////////////////////////////\r\n        struct Agreement {\r\n            address buyerAddr;\r\n            uint256 licenseId;\r\n            uint256 childTokenId;\r\n        }\r\n\r\n        mapping(uint256 => Agreement) public agreementDetails;              //agreementDetails[agreementId] => Agreement struct\r\n        mapping(uint256 => mapping(uint256 => uint256)) public agreements;  //agreements[_childTokenId][_parentTokenId] => agreementId\r\n\r\n        mapping(uint256 => uint256) public tokenLineage;                    //tokenLineage[_newlyMintedTokenId] => parentTokenId aka base token aka original token\r\n        mapping(uint256 => uint256) public tokenGenerationNumber;           //tokenGenerationNumber[tokenId] => generation counter\r\n\r\n        mapping(uint256 => bool) internal agreementIdHasBeenGenerated;         //agreementIdHasBeenGenerated[_agreementId] => true/false\r\n        mapping(address => bool) public approvedAgreementMakerContracts;     //only licenseMarketplace can create agreements\r\n\r\n        event AgreementSigned(address buyer, uint256 tokenId, uint256 agreementId);\r\n\r\n        modifier onlyApprovedAgreementMaker(address _msgSender)\r\n        {\r\n            require(approvedAgreementMakerContracts[_msgSender] == true,\r\n                    \"AGREEMENTS: ONLY APPROVED CONTRACTS CAN STORE DATA\"\r\n            );\r\n\r\n            _;\r\n        }\r\n\r\n    ////////////////////////////////////////////////\r\n    //           ADMIN SETUP FUNCTION             //\r\n    ////////////////////////////////////////////////\r\n        function approveAgreementMaker(address _approvedAgreementMaker)\r\n            external\r\n            onlyAdmin\r\n        {\r\n            approvedAgreementMakerContracts[_approvedAgreementMaker] = true;\r\n        }\r\n\r\n    ////////////////////////////////////////////////\r\n    //                  CORE                      //\r\n    ////////////////////////////////////////////////\r\n        function signAgreement(address _buyerAddr, uint256 _licenseId, uint256 _tokenId, uint256 _childTokenId, uint256 _timestamp)\r\n            public\r\n            onlyApprovedAgreementMaker(msg.sender)\r\n            returns(uint256 _agreementId)\r\n        {\r\n            _agreementId =  generateAgreementId(\r\n                                _buyerAddr,\r\n                                _tokenId,\r\n                                _childTokenId,\r\n                                _licenseId,\r\n                                _timestamp\r\n                            );\r\n            \r\n            agreements[_childTokenId][_tokenId] = _agreementId;\r\n            agreementDetails[_agreementId].buyerAddr = _buyerAddr;\r\n            agreementDetails[_agreementId].licenseId = _licenseId;\r\n            \r\n            //CHILD TOKEN DETAILS\r\n            tokenLineage[_childTokenId] = _tokenId;\r\n            agreementDetails[_agreementId].childTokenId = _childTokenId;\r\n            \r\n            _updateTokenGeneration(_childTokenId, _tokenId);\r\n            \r\n            emit AgreementSigned(_buyerAddr, _tokenId, _agreementId);\r\n        }\r\n\r\n        function _updateTokenGeneration(uint256 _childTokenId, uint256 _parentTokenId)\r\n            internal\r\n        {\r\n            require(tokenGenerationNumber[_parentTokenId] < 10,\r\n                    \"AGREEMENTS: CANNOT HAVE > 10 CHILDREN\"\r\n            );\r\n            \r\n            tokenGenerationNumber[_childTokenId] = tokenGenerationNumber[_parentTokenId].add(1);\r\n        }\r\n\r\n    ////////////////////////////////////////////////\r\n    //              GETTER FUNCTIONS              //\r\n    ////////////////////////////////////////////////\r\n        function getAgreementId(uint256 _childTokenId)\r\n            external\r\n            view\r\n            returns(uint256 agreementId)\r\n        {\r\n            agreementId = agreements[_childTokenId][tokenLineage[_childTokenId]];\r\n        }\r\n\r\n        function getChildTokenId(uint256 _agreementId)\r\n            external\r\n            view\r\n            returns(uint256)\r\n        {\r\n            return(agreementDetails[_agreementId].childTokenId);\r\n        }\r\n\r\n        function getLicenseIdByAgreementId(uint256 _agreementId)\r\n            external\r\n            view\r\n            returns(uint256)\r\n        {\r\n            return(agreementDetails[_agreementId].licenseId);\r\n        }        \r\n\r\n        function getAgreementBuyerAddress(uint256 _agreementId)\r\n            external\r\n            view\r\n            returns(address)\r\n        {\r\n            return(agreementDetails[_agreementId].buyerAddr);\r\n        }\r\n\r\n    ////////////////////////////////////////////////\r\n    //              HELPER FUNCTIONS              //\r\n    ////////////////////////////////////////////////\r\n        function generateAgreementId(\r\n            address _senderAddr,\r\n            uint256 _tokenId,\r\n            uint256 _childTokenId,\r\n            uint256 _licenseId,\r\n            uint256 _timestamp\r\n        )\r\n            internal\r\n            returns(uint256 agreementId)\r\n        {\r\n            agreementId = uint256(\r\n                keccak256(\r\n                    abi.encodePacked(_senderAddr, _tokenId, _childTokenId, _licenseId, _timestamp)\r\n                )\r\n            );\r\n\r\n            checkIdUniqueness(agreementId);\r\n        }\r\n\r\n        function checkIdUniqueness(uint256 agreementId)\r\n            internal\r\n        {\r\n            require(agreementIdHasBeenGenerated[agreementId] != true,\r\n                   \"AGREEMENTS: agreementId has already been generated, try again\"\r\n            );\r\n            \r\n            require(agreementId != 0,\r\n                    \"AGREEMENTS: agreementId CANNOT BE 0\"\r\n            );\r\n\r\n            agreementIdHasBeenGenerated[agreementId] = true;\r\n        }\r\n}\r\n\r\n\r\n\r\ncontract xrRegistry is AccessController{\r\n\r\n    /*\r\n    * TOKEN MANAGEMENT\r\n    *   Will be used as:\r\n    *   tokenManager[msg.sender] to return NFT address to use to get token for licensing + minting.\r\n    */\r\n    mapping(address => address) tokenManager; //tokenManager[myProjectsContractAddress] => nftAddress\r\n\r\n    //REGISTRATION MANAGEMENT\r\n    mapping(address => bool) private isRegistered; //isRegistered[MyProjectsContractAddress] => true/false - only updated here\r\n\r\n    address RoyaltyNFT;\r\n    mapping(address => address) registeredContractAdminAddress; //registeredContractAdminAddress[msg.sender] = registered contract addr\r\n\r\n    //registering without a token defaults to the generic RoyaltyNFT provided by 0xR\r\n    function register(\r\n        address _candidateAddress\r\n    )\r\n        public\r\n        payable\r\n    {\r\n        //charge .025ETH registration fee\r\n            //send to 0xR revenue sharing contract\r\n\r\n        tokenManager[_candidateAddress] = RoyaltyNFT;\r\n\r\n        isRegistered[_candidateAddress] = true;\r\n\r\n        updateContractController(msg.sender, _candidateAddress);\r\n    }\r\n\r\n    function register(\r\n        address _candidateAddress,\r\n        address _tokenCandidateAddress\r\n    )\r\n        public\r\n        payable\r\n    {\r\n        //charge .025ETH registration fee\r\n            //send to 0xR revenue sharing contract\r\n\r\n        registerToken(\r\n            _candidateAddress,\r\n            _tokenCandidateAddress    \r\n        );\r\n\r\n        isRegistered[_candidateAddress] = true;\r\n        updateContractController(msg.sender, _candidateAddress);\r\n    }\r\n\r\n    function registerToken(\r\n        address _candidateAddress,\r\n        address _tokenCandidateAddress\r\n    )\r\n        internal\r\n    {\r\n                //check token meets requirements:\r\n                    //implicitly requiring ERC165 implementation?\r\n            //require is ERC721\r\n            //require is ERC21 Minting\r\n            //require is ERC721 Metadata\r\n\r\n            tokenManager[_candidateAddress] = _tokenCandidateAddress;\r\n    }\r\n\r\n    function updateContractController(\r\n        address _msgSender,\r\n        address _registeredContract\r\n    )\r\n        internal\r\n    {\r\n        registeredContractAdminAddress[_msgSender] = _registeredContract;\r\n    }\r\n\r\n    function updateTokenForRegisteredContract(\r\n        address _registeredContractAddr,\r\n        address _newTokenAddr\r\n    )\r\n        external\r\n    {\r\n        require(registeredContractAdminAddress[msg.sender] == _registeredContractAddr);\r\n\r\n        tokenManager[_registeredContractAddr] = _newTokenAddr;\r\n    }\r\n\r\n\r\n    function isSenderRegistered(address _queriedAddress)\r\n        public\r\n        view\r\n        returns(bool)\r\n    {\r\n        return(isRegistered[_queriedAddress]);\r\n    }\r\n\r\n}\r\n",
  "sourcePath": "C:\\dev\\0xRoyaltiesUnofficial\\contracts\\flat-contracts\\0xR_flat.sol",
  "compiler": {
    "name": "solc",
    "version": "0.8.13+commit.abaa5c0e.Emscripten.clang"
  },
  "schemaVersion": "3.4.7",
  "updatedAt": "2022-05-01T23:26:15.827Z",
  "devdoc": {
    "kind": "dev",
    "methods": {},
    "version": 1
  },
  "userdoc": {
    "kind": "user",
    "methods": {},
    "version": 1
  }
}