{
  "contractName": "ManageLicense",
  "abi": [
    {
      "anonymous": false,
      "inputs": [
        {
          "indexed": false,
          "internalType": "address",
          "name": "newAdminAddress",
          "type": "address"
        }
      ],
      "name": "AddedAdmin",
      "type": "event"
    },
    {
      "anonymous": false,
      "inputs": [
        {
          "indexed": false,
          "internalType": "uint256",
          "name": "tokenId",
          "type": "uint256"
        },
        {
          "indexed": false,
          "internalType": "uint256",
          "name": "licenseId",
          "type": "uint256"
        },
        {
          "indexed": false,
          "internalType": "address",
          "name": "licenseCreator",
          "type": "address"
        }
      ],
      "name": "LicenseCreated",
      "type": "event"
    },
    {
      "anonymous": false,
      "inputs": [
        {
          "indexed": false,
          "internalType": "address",
          "name": "newOwnerAddress",
          "type": "address"
        }
      ],
      "name": "OwnerSet",
      "type": "event"
    },
    {
      "anonymous": false,
      "inputs": [],
      "name": "Paused",
      "type": "event"
    },
    {
      "anonymous": false,
      "inputs": [
        {
          "indexed": false,
          "internalType": "address",
          "name": "prevAdminAddress",
          "type": "address"
        }
      ],
      "name": "RemovedAdmin",
      "type": "event"
    },
    {
      "anonymous": false,
      "inputs": [
        {
          "indexed": false,
          "internalType": "uint256",
          "name": "tokenId",
          "type": "uint256"
        },
        {
          "indexed": false,
          "internalType": "uint256",
          "name": "licenseId",
          "type": "uint256"
        },
        {
          "indexed": false,
          "internalType": "uint256",
          "name": "royaltySplit1",
          "type": "uint256"
        },
        {
          "indexed": false,
          "internalType": "uint256",
          "name": "royaltySplit2",
          "type": "uint256"
        },
        {
          "indexed": false,
          "internalType": "uint256",
          "name": "royaltySplit3",
          "type": "uint256"
        },
        {
          "indexed": false,
          "internalType": "uint256",
          "name": "royaltySplit4",
          "type": "uint256"
        },
        {
          "indexed": false,
          "internalType": "uint256",
          "name": "royaltySplit5",
          "type": "uint256"
        },
        {
          "indexed": false,
          "internalType": "uint256",
          "name": "royaltySplit6",
          "type": "uint256"
        },
        {
          "indexed": false,
          "internalType": "uint256",
          "name": "royaltySplit7",
          "type": "uint256"
        },
        {
          "indexed": false,
          "internalType": "uint256",
          "name": "_royaltySplit8",
          "type": "uint256"
        }
      ],
      "name": "RoyaltySplitsAdded",
      "type": "event"
    },
    {
      "anonymous": false,
      "inputs": [],
      "name": "Unpaused",
      "type": "event"
    },
    {
      "inputs": [],
      "name": "adminAddress",
      "outputs": [
        {
          "internalType": "address",
          "name": "",
          "type": "address"
        }
      ],
      "stateMutability": "view",
      "type": "function"
    },
    {
      "inputs": [
        {
          "internalType": "uint256",
          "name": "_licenseId",
          "type": "uint256"
        },
        {
          "internalType": "uint256",
          "name": "_amountAfterFees",
          "type": "uint256"
        },
        {
          "internalType": "uint8",
          "name": "_royaltyType",
          "type": "uint8"
        }
      ],
      "name": "calcRoyaltyPayment",
      "outputs": [
        {
          "internalType": "uint256",
          "name": "pmtAmount",
          "type": "uint256"
        }
      ],
      "stateMutability": "view",
      "type": "function"
    },
    {
      "inputs": [
        {
          "internalType": "uint256",
          "name": "_licenseId",
          "type": "uint256"
        }
      ],
      "name": "getLicenseByLicenseId",
      "outputs": [
        {
          "internalType": "uint256",
          "name": "",
          "type": "uint256"
        },
        {
          "internalType": "address",
          "name": "",
          "type": "address"
        },
        {
          "internalType": "uint256",
          "name": "",
          "type": "uint256"
        },
        {
          "internalType": "string",
          "name": "",
          "type": "string"
        }
      ],
      "stateMutability": "view",
      "type": "function"
    },
    {
      "inputs": [
        {
          "internalType": "uint256",
          "name": "_tokenId",
          "type": "uint256"
        }
      ],
      "name": "getLicenseIdFromTokenId",
      "outputs": [
        {
          "internalType": "uint256",
          "name": "licenseId",
          "type": "uint256"
        }
      ],
      "stateMutability": "view",
      "type": "function"
    },
    {
      "inputs": [
        {
          "internalType": "uint256",
          "name": "_licenseId",
          "type": "uint256"
        }
      ],
      "name": "getTokenIdFromLicenseId",
      "outputs": [
        {
          "internalType": "uint256",
          "name": "_tokenId",
          "type": "uint256"
        }
      ],
      "stateMutability": "view",
      "type": "function"
    },
    {
      "inputs": [
        {
          "internalType": "uint256",
          "name": "_tokenId",
          "type": "uint256"
        }
      ],
      "name": "hasValidLicense",
      "outputs": [
        {
          "internalType": "bool",
          "name": "",
          "type": "bool"
        }
      ],
      "stateMutability": "view",
      "type": "function"
    },
    {
      "inputs": [
        {
          "internalType": "uint256",
          "name": "",
          "type": "uint256"
        }
      ],
      "name": "licenses",
      "outputs": [
        {
          "internalType": "address",
          "name": "licenseCreator",
          "type": "address"
        },
        {
          "internalType": "uint256",
          "name": "tokenId",
          "type": "uint256"
        },
        {
          "internalType": "uint256",
          "name": "registeredOn",
          "type": "uint256"
        },
        {
          "internalType": "string",
          "name": "governingLawJurisdiction",
          "type": "string"
        }
      ],
      "stateMutability": "view",
      "type": "function"
    },
    {
      "inputs": [],
      "name": "ownerAddress",
      "outputs": [
        {
          "internalType": "address",
          "name": "",
          "type": "address"
        }
      ],
      "stateMutability": "view",
      "type": "function"
    },
    {
      "inputs": [],
      "name": "pause",
      "outputs": [],
      "stateMutability": "nonpayable",
      "type": "function"
    },
    {
      "inputs": [],
      "name": "paused",
      "outputs": [
        {
          "internalType": "bool",
          "name": "",
          "type": "bool"
        }
      ],
      "stateMutability": "view",
      "type": "function"
    },
    {
      "inputs": [
        {
          "internalType": "uint256",
          "name": "",
          "type": "uint256"
        }
      ],
      "name": "royaltySplits",
      "outputs": [
        {
          "internalType": "uint256",
          "name": "royaltyPercentage1",
          "type": "uint256"
        },
        {
          "internalType": "uint256",
          "name": "royaltyPercentage2",
          "type": "uint256"
        },
        {
          "internalType": "uint256",
          "name": "royaltyPercentage3",
          "type": "uint256"
        },
        {
          "internalType": "uint256",
          "name": "royaltyPercentage4",
          "type": "uint256"
        },
        {
          "internalType": "uint256",
          "name": "royaltyPercentage5",
          "type": "uint256"
        },
        {
          "internalType": "uint256",
          "name": "royaltyPercentage6",
          "type": "uint256"
        },
        {
          "internalType": "uint256",
          "name": "royaltyPercentage7",
          "type": "uint256"
        },
        {
          "internalType": "uint256",
          "name": "royaltyPercentage8",
          "type": "uint256"
        }
      ],
      "stateMutability": "view",
      "type": "function"
    },
    {
      "inputs": [
        {
          "internalType": "address",
          "name": "_newAdminAddress",
          "type": "address"
        }
      ],
      "name": "setAdmin",
      "outputs": [],
      "stateMutability": "nonpayable",
      "type": "function"
    },
    {
      "inputs": [],
      "name": "unpause",
      "outputs": [],
      "stateMutability": "nonpayable",
      "type": "function"
    },
    {
      "inputs": [
        {
          "internalType": "address",
          "name": "_newOwnerAddress",
          "type": "address"
        }
      ],
      "name": "updateOwner",
      "outputs": [],
      "stateMutability": "nonpayable",
      "type": "function"
    },
    {
      "inputs": [
        {
          "internalType": "uint256",
          "name": "_licenseId",
          "type": "uint256"
        }
      ],
      "name": "verifyIdExists",
      "outputs": [
        {
          "internalType": "bool",
          "name": "",
          "type": "bool"
        }
      ],
      "stateMutability": "view",
      "type": "function"
    },
    {
      "inputs": [
        {
          "internalType": "uint256",
          "name": "_tokenId",
          "type": "uint256"
        },
        {
          "internalType": "address",
          "name": "_msgSender",
          "type": "address"
        },
        {
          "internalType": "address",
          "name": "_tokenAddress",
          "type": "address"
        },
        {
          "internalType": "uint256",
          "name": "_royaltySplit1",
          "type": "uint256"
        },
        {
          "internalType": "uint256",
          "name": "_royaltySplit2",
          "type": "uint256"
        },
        {
          "internalType": "uint256",
          "name": "_royaltySplit3",
          "type": "uint256"
        },
        {
          "internalType": "uint256",
          "name": "_royaltySplit4",
          "type": "uint256"
        },
        {
          "internalType": "uint256",
          "name": "_royaltySplit5",
          "type": "uint256"
        },
        {
          "internalType": "uint256",
          "name": "_royaltySplit6",
          "type": "uint256"
        },
        {
          "internalType": "uint256",
          "name": "_royaltySplit7",
          "type": "uint256"
        },
        {
          "internalType": "uint256",
          "name": "_royaltySplit8",
          "type": "uint256"
        }
      ],
      "name": "createTokenLicense",
      "outputs": [
        {
          "internalType": "uint256",
          "name": "_licenseId",
          "type": "uint256"
        }
      ],
      "stateMutability": "nonpayable",
      "type": "function"
    },
    {
      "inputs": [
        {
          "internalType": "uint256",
          "name": "_tokenId",
          "type": "uint256"
        },
        {
          "internalType": "address",
          "name": "_msgSender",
          "type": "address"
        },
        {
          "internalType": "address",
          "name": "_tokenAddress",
          "type": "address"
        },
        {
          "internalType": "string",
          "name": "_newJuridiction",
          "type": "string"
        }
      ],
      "name": "updateGoverningJurisdiction",
      "outputs": [],
      "stateMutability": "nonpayable",
      "type": "function"
    }
  ],
  "bytecode": "0x60806040526006805460ff60a01b1916905534801561001d57600080fd5b50600580546001600160a01b031916339081178255600090815260076020908152604091829020805460ff19166001179055915490516001600160a01b0390911681527f50146d0e3c60aa1d17a70635b05494f864e86144a2201275021014fbf08bafe2910160405180910390a16005546040516001600160a01b0390911681527f7849194239ab1d31b991b5436d81370256505cf25eaafbcccbc66acd118969169060200160405180910390a1611625806100da6000396000f3fe608060405234801561001057600080fd5b506004361061010b5760003560e01c80638456cb59116100a2578063aa173d7511610071578063aa173d75146102d7578063be6aa342146102f7578063cabb46591461030a578063ed3a45b11461032d578063fc6f94681461035057600080fd5b80638456cb591461020057806384b3d9fd14610208578063880cdc31146102995780638f84aa09146102ac57600080fd5b80634666b725116100de5780634666b725146101b35780635c975abb146101c6578063704b6c02146101da57806380dbea08146101ed57600080fd5b80631c48fc7d146101105780632396069c1461015557806333790845146101865780633f4ba83a146101a9575b600080fd5b61014061011e3660046111a4565b6000908152600160209081526040808320548352600490915290205460ff1690565b60405190151581526020015b60405180910390f35b6101786101633660046111a4565b60009081526002602052604090206001015490565b60405190815260200161014c565b6101996101943660046111a4565b610363565b60405161014c949392919061120a565b6101b1610420565b005b6101786101c1366004611242565b6104fa565b60065461014090600160a01b900460ff1681565b6101b16101e8366004611296565b610523565b6101786101fb3660046112b3565b61066c565b6101b16107c9565b61025e6102163660046111a4565b60036020528060005260406000206000915090508060000154908060010154908060020154908060030154908060040154908060050154908060060154908060070154905088565b604080519889526020890197909752958701949094526060860192909252608085015260a084015260c083015260e08201526101000161014c565b6101b16102a7366004611296565b610895565b6005546102bf906001600160a01b031681565b6040516001600160a01b03909116815260200161014c565b6101786102e53660046111a4565b60009081526001602052604090205490565b6101b1610305366004611354565b61096e565b61031d6103183660046111a4565b610b40565b60405161014c9493929190611434565b61014061033b3660046111a4565b60009081526004602052604090205460ff1690565b6006546102bf906001600160a01b031681565b600260208190526000918252604090912080546001820154928201546003830180546001600160a01b039093169493919261039d90611462565b80601f01602080910402602001604051908101604052809291908181526020018280546103c990611462565b80156104165780601f106103eb57610100808354040283529160200191610416565b820191906000526020600020905b8154815290600101906020018083116103f957829003601f168201915b5050505050905084565b3360009081526007602052604090205460ff16151560011461045d5760405162461bcd60e51b81526004016104549061149c565b60405180910390fd5b600654600160a01b900460ff166104c25760405162461bcd60e51b815260206004820152602360248201527f416363657373436f6e74726f6c3a2063757272656e6c7479206e6f74207061756044820152621cd95960ea1b6064820152608401610454565b6006805460ff60a01b191690556040517fa45f47fdea8a1efdd9029a5691c7f759c32b7c698632b563573e155625d1693390600090a1565b600061051b606461051561050e8786610c47565b8690610d0a565b90610d95565b949350505050565b6005546001600160a01b0316331461054d5760405162461bcd60e51b8152600401610454906114e3565b6001600160a01b0381166105b15760405162461bcd60e51b815260206004820152602560248201527f416363657373436f6e74726f6c3a20696e76616c696420776f726b6572206164604482015264647265737360d81b6064820152608401610454565b600680546001600160a01b03908116600090815260076020908152604091829020805460ff1916905592549051911681527f3137a7fedbfedb7895dfa5a6812a4566dae9ded68d00aeec13c6ed1fa84a1c80910160405180910390a1600680546001600160a01b0319166001600160a01b0383169081179091556000819052600760209081526040519182527f7849194239ab1d31b991b5436d81370256505cf25eaafbcccbc66acd1189691691015b60405180910390a150565b60008b8b8b806001600160a01b0316636352211e846040518263ffffffff1660e01b815260040161069f91815260200190565b602060405180830381865afa1580156106bc573d6000803e3d6000fd5b505050506040513d601f19601f820116820180604052508101906106e0919061152a565b6001600160a01b0316826001600160a01b0316146107405760405162461bcd60e51b815260206004820152601960248201527f4c4943454e53453a204f4e4c5920544f4b454e204f574e4552000000000000006044820152606401610454565b600654600160a01b900460ff161561079a5760405162461bcd60e51b815260206004820152601f60248201527f416363657373436f6e74726f6c3a2063757272656e746c7920706175736564006044820152606401610454565b6107a38f610df2565b93506107b78f858e8e8e8e8e8e8e8e610eb6565b5050509b9a5050505050505050505050565b3360009081526007602052604090205460ff1615156001146107fd5760405162461bcd60e51b81526004016104549061149c565b600654600160a01b900460ff16156108575760405162461bcd60e51b815260206004820152601f60248201527f416363657373436f6e74726f6c3a2063757272656e746c7920706175736564006044820152606401610454565b6006805460ff60a01b1916600160a01b1790556040517f9e87fac88ff661f02d44f95383c817fece4bce600a3dab7a54406878b965e75290600090a1565b6005546001600160a01b031633146108bf5760405162461bcd60e51b8152600401610454906114e3565b6001600160a01b0381166109205760405162461bcd60e51b815260206004820152602260248201527f416363657373436f6e74726f6c3a20696e76616c69642043454f206164647265604482015261737360f01b6064820152608401610454565b600580546001600160a01b0319166001600160a01b0383169081179091556040519081527f50146d0e3c60aa1d17a70635b05494f864e86144a2201275021014fbf08bafe290602001610661565b6000848152600160205260409020546040516331a9108f60e11b815260048101829052849084906001600160a01b03821690636352211e90602401602060405180830381865afa1580156109c6573d6000803e3d6000fd5b505050506040513d601f19601f820116820180604052508101906109ea919061152a565b6001600160a01b0316826001600160a01b031614610a4a5760405162461bcd60e51b815260206004820152601960248201527f4c4943454e53453a204f4e4c5920544f4b454e204f574e4552000000000000006044820152606401610454565b600654600160a01b900460ff1615610aa45760405162461bcd60e51b815260206004820152601f60248201527f416363657373436f6e74726f6c3a2063757272656e746c7920706175736564006044820152606401610454565b8351600003610b075760405162461bcd60e51b815260206004820152602960248201527f4c4943454e53453a2063616e6e6f74207375626d697420656d707479204a757260448201526834b9b234b1ba34b7b760b91b6064820152608401610454565b6000878152600160209081526040808320548352600282529091208551610b369260039092019187019061110b565b5050505050505050565b60008181526004602052604081205481908190606090859060ff161515600114610b7c5760405162461bcd60e51b815260040161045490611547565b600086815260026020819052604090912060018101548154928201546003909201805491936001600160a01b031692918190610bb790611462565b80601f0160208091040260200160405190810160405280929190818152602001828054610be390611462565b8015610c305780601f10610c0557610100808354040283529160200191610c30565b820191906000526020600020905b815481529060010190602001808311610c1357829003601f168201915b505050505090509450945094509450509193509193565b600082815260046020526040812054839060ff161515600114610c7c5760405162461bcd60e51b815260040161045490611547565b60408051610100810182526000868152600360208181528483208054855260018101548286015260028101549585019590955284820154606085015260048501546080850152600585015460a0850152600685015460c085015291889052905260079091015460e08201528060ff851660088110610cfc57610cfc61158a565b602002015195945050505050565b600082600003610d1c57506000610d8f565b6000610d2883856115a0565b905082610d3585836115cd565b14610d8c5760405162461bcd60e51b815260206004820152602160248201527f536166654d6174683a206d756c7469706c69636174696f6e206f766572666c6f6044820152607760f81b6064820152608401610454565b90505b92915050565b6000808211610de65760405162461bcd60e51b815260206004820152601a60248201527f536166654d6174683a206469766973696f6e206279207a65726f0000000000006044820152606401610454565b600061051b83856115cd565b6000610dff338342610fc2565b60008181526002602081815260408084206001810188905580546001600160a01b031916331781554281850155815180830190925283825261555360f01b828401908152948690529290915251929350610e5f926003909101919061110b565b506000828152600160209081526040918290208390558151848152908101839052338183015290517f1507d66566b701e38316ecd4ed651763fbc32645243fd2410b4a38b327d0dd239181900360600190a1919050565b610ebf8861101d565b610ec88761101d565b610ed18661101d565b610eda8561101d565b610ee38461101d565b610eec8361101d565b610ef58261101d565b610efe8161101d565b6000898152600360208181526040928390208b8155600181018b9055600281018a9055918201889055600482018790556005820186905560068201859055600790910183905581518c81529081018b9052908101899052606081018890526080810187905260a0810186905260c0810185905260e08101849052610100810183905261012081018290527fdc1ee27ed9370c2fb50a2bc405d1d0d78717a4025cdeb50f1c8445f121883865906101400160405180910390a150505050505050505050565b6040516bffffffffffffffffffffffff19606085901b16602082015260348101839052605481018290526000906074016040516020818303038152906040528051906020012060001c905061101681611071565b9392505050565b606481111561106e5760405162461bcd60e51b815260206004820181905260248201527f4c4943454e53494e473a20494e56414c494420524f59414c54592053504c49546044820152606401610454565b50565b60008181526004602052604090205460ff1615156001036110f05760405162461bcd60e51b815260206004820152603360248201527f4c4943454e53494e473a2049442068617320616c7265616479206265656e206760448201527232b732b930ba32b216103a393c9030b3b0b4b760691b6064820152608401610454565b6000908152600460205260409020805460ff19166001179055565b82805461111790611462565b90600052602060002090601f016020900481019282611139576000855561117f565b82601f1061115257805160ff191683800117855561117f565b8280016001018555821561117f579182015b8281111561117f578251825591602001919060010190611164565b5061118b92915061118f565b5090565b5b8082111561118b5760008155600101611190565b6000602082840312156111b657600080fd5b5035919050565b6000815180845260005b818110156111e3576020818501810151868301820152016111c7565b818111156111f5576000602083870101525b50601f01601f19169290920160200192915050565b6001600160a01b038516815283602082015282604082015260806060820152600061123860808301846111bd565b9695505050505050565b60008060006060848603121561125757600080fd5b8335925060208401359150604084013560ff8116811461127657600080fd5b809150509250925092565b6001600160a01b038116811461106e57600080fd5b6000602082840312156112a857600080fd5b8135610d8c81611281565b60008060008060008060008060008060006101608c8e0312156112d557600080fd5b8b359a5060208c01356112e781611281565b995060408c01356112f781611281565b9a9d999c50999a60608101359a5060808101359960a0820135995060c0820135985060e0820135975061010082013596506101208201359550610140909101359350915050565b634e487b7160e01b600052604160045260246000fd5b6000806000806080858703121561136a57600080fd5b84359350602085013561137c81611281565b9250604085013561138c81611281565b9150606085013567ffffffffffffffff808211156113a957600080fd5b818701915087601f8301126113bd57600080fd5b8135818111156113cf576113cf61133e565b604051601f8201601f19908116603f011681019083821181831017156113f7576113f761133e565b816040528281528a602084870101111561141057600080fd5b82602086016020830137600060208483010152809550505050505092959194509250565b8481526001600160a01b038416602082015282604082015260806060820152600061123860808301846111bd565b600181811c9082168061147657607f821691505b60208210810361149657634e487b7160e01b600052602260045260246000fd5b50919050565b60208082526027908201527f416363657373436f6e74726f6c3a206d73672e73656e646572206d7573742062604082015266329030b236b4b760c91b606082015260800190565b60208082526027908201527f416363657373436f6e74726f6c3a206d73672e73656e646572206d7573742062604082015266329037bbb732b960c91b606082015260800190565b60006020828403121561153c57600080fd5b8151610d8c81611281565b60208082526023908201527f4c4943454e53494e473a206c6963656e7365496420646f6573206e6f742065786040820152621a5cdd60ea1b606082015260800190565b634e487b7160e01b600052603260045260246000fd5b60008160001904831182151516156115c857634e487b7160e01b600052601160045260246000fd5b500290565b6000826115ea57634e487b7160e01b600052601260045260246000fd5b50049056fea26469706673582212203539b079f23295cc45cbf0dfaefabc02d8d2b5ce7f9656bc1abb180a547a7b5764736f6c634300080d0033",
  "immutableReferences": {},
  "source": "//SPDX-License-Identifier: agpl-3.0\r\n//-U+2654-  - 0xRoyalties\r\npragma solidity ^0.8.0;\r\nimport \"../common-contracts/SafeMath.sol\";\r\nimport \"../common-contracts/AccessControl.sol\";\r\n\r\n//ERCs\r\nimport \"../common-contracts/ERC/interfaces/IERC721.sol\";\r\n\r\n\r\n/*\r\n *    ADD INTERFACES!\r\n*/\r\n\r\ncontract LicenseGlobals {\r\n\r\n    ////////////////////////////////////////////////\r\n    //                  VARS                      //\r\n    ////////////////////////////////////////////////\r\n    \r\n        IERC721 licensedToken;\r\n        // enum Exclusivity {EXCLUSIVE, NONEXCLUSIVE}\r\n\r\n        struct License {\r\n            address licenseCreator;\r\n            uint256 tokenId;\r\n            uint256 registeredOn;\r\n            string governingLawJurisdiction;\r\n        }\r\n        \r\n        struct GenericRoyaltyShares {\r\n            uint256 royaltyPercentage1;\r\n            uint256 royaltyPercentage2;\r\n            uint256 royaltyPercentage3;\r\n            uint256 royaltyPercentage4;\r\n            uint256 royaltyPercentage5;\r\n            uint256 royaltyPercentage6;\r\n            uint256 royaltyPercentage7;\r\n            uint256 royaltyPercentage8;\r\n        }\r\n\r\n        // struct RoyaltyPayment {\r\n        //     uint256 invoiceNumber;\r\n        //     RoyaltyType _royaltyType;\r\n        //     uint256 amount;\r\n        //     //uint256 paymentNum;\r\n        // }\r\n\r\n        mapping(uint256 => uint256) internal tokenToLicenseMapping; //tokenId => licenseId\r\n        mapping(uint256 => License) public licenses; //licenses[licenseId]\r\n        mapping(uint256 => GenericRoyaltyShares) public royaltySplits; //royaltySplits[licenseId]\r\n        mapping(uint256 => bool) internal idHasBeenGenerated; //used to check uniqueness of licenseId\r\n\r\n\r\n    ////////////////////////////////////////////////\r\n    //                MODIFIERS                   //\r\n    ////////////////////////////////////////////////\r\n        modifier onlyTokenOwner(uint256 _tokenId, address _msgSender, address _tokenAddress)\r\n        {\r\n            require(_msgSender == IERC721(_tokenAddress).ownerOf(_tokenId),\r\n                    \"LICENSE: ONLY TOKEN OWNER\"\r\n            );\r\n\r\n            _;\r\n        }\r\n        \r\n        modifier checkLicenseExists(uint256 _licenseId)\r\n        {\r\n            require(idHasBeenGenerated[_licenseId] == true,\r\n                    \"LICENSING: licenseId does not exist\"\r\n            );\r\n            \r\n            _;\r\n        }\r\n\r\n    /////////////////////////////////////////////////\r\n    //                 EVENTS                      //\r\n    /////////////////////////////////////////////////\r\n        event LicenseCreated(uint256 tokenId, uint256 licenseId, address licenseCreator);\r\n        event RoyaltySplitsAdded(uint256 tokenId, uint256 licenseId,\r\n            uint256 royaltySplit1, uint256 royaltySplit2, uint256 royaltySplit3, uint256 royaltySplit4,\r\n            uint256 royaltySplit5, uint256 royaltySplit6, uint256 royaltySplit7, uint256 _royaltySplit8\r\n        );\r\n}\r\n\r\ncontract LicenseHelper is LicenseGlobals, AccessController {\r\n    using SafeMath for uint256;\r\n    \r\n    ////////////////////////////////////////////////\r\n    //              GETTER FUNCTIONS              //\r\n    ////////////////////////////////////////////////\r\n        function getLicenseByLicenseId(uint256 _licenseId)\r\n            external\r\n            view\r\n            checkLicenseExists(_licenseId)\r\n            returns(uint256,address,uint256,string memory)\r\n        {\r\n            return(\r\n                licenses[_licenseId].tokenId,\r\n                licenses[_licenseId].licenseCreator,\r\n                licenses[_licenseId].registeredOn,\r\n                licenses[_licenseId].governingLawJurisdiction\r\n            );\r\n        }\r\n        \r\n        function getSpecificRoyaltySplit(uint256 _licenseId, uint8 _royaltyType)\r\n            internal\r\n            view\r\n            checkLicenseExists(_licenseId)\r\n            returns(uint256 requestedSplit)\r\n        {\r\n            uint256[8] memory allSplits = [\r\n                royaltySplits[_licenseId].royaltyPercentage1,\r\n                royaltySplits[_licenseId].royaltyPercentage2,\r\n                royaltySplits[_licenseId].royaltyPercentage3,\r\n                royaltySplits[_licenseId].royaltyPercentage4,\r\n                royaltySplits[_licenseId].royaltyPercentage5,\r\n                royaltySplits[_licenseId].royaltyPercentage6,\r\n                royaltySplits[_licenseId].royaltyPercentage7,\r\n                royaltySplits[_licenseId].royaltyPercentage8\r\n            ];\r\n\r\n            requestedSplit = allSplits[_royaltyType];\r\n        }\r\n\r\n        function getTokenIdFromLicenseId(uint256 _licenseId)\r\n            external\r\n            view\r\n            returns(uint256 _tokenId)\r\n        {\r\n            _tokenId = licenses[_licenseId].tokenId;\r\n        }\r\n\r\n        function getLicenseIdFromTokenId(uint256 _tokenId)\r\n            public\r\n            view\r\n            returns(uint256 licenseId)\r\n        {\r\n            licenseId = tokenToLicenseMapping[_tokenId];\r\n        }\r\n        \r\n        function hasValidLicense(uint256 _tokenId)\r\n            external\r\n            view\r\n            returns(bool)\r\n        {\r\n            return(idHasBeenGenerated[tokenToLicenseMapping[_tokenId]]);\r\n        }\r\n\r\n    ////////////////////////////////////////////////\r\n    //              HELPER FUNCTIONS              //\r\n    ////////////////////////////////////////////////\r\n        function generateId(\r\n            address _senderAddr,\r\n            uint256 _tokenId,\r\n            uint256 _timestamp\r\n        )\r\n            internal\r\n            returns(uint256 _licenseId)\r\n        {\r\n            _licenseId = uint256(\r\n                keccak256(\r\n                    abi.encodePacked(_senderAddr, _tokenId, _timestamp)\r\n                )\r\n            );\r\n\r\n            checkIdUniqueness(_licenseId);\r\n        }\r\n\r\n        function checkIdUniqueness(uint256 _licenseId)\r\n            internal\r\n        {\r\n            require(idHasBeenGenerated[_licenseId] != true,\r\n                \"LICENSING: ID has already been generated, try again\"\r\n            );\r\n\r\n            idHasBeenGenerated[_licenseId] = true;\r\n        }\r\n        \r\n        function verifyIdExists(uint256 _licenseId)\r\n            public\r\n            view\r\n            returns(bool)\r\n        {\r\n            return(idHasBeenGenerated[_licenseId]);\r\n        }\r\n\r\n    ////////////////////////////////////////////////\r\n    //             ROYALTY FUNCTIONS              //\r\n    ////////////////////////////////////////////////\r\n        function calcRoyaltyPayment(\r\n            uint256 _licenseId,\r\n            uint256 _amountAfterFees,\r\n            uint8 _royaltyType\r\n        )\r\n            public\r\n            view\r\n            returns(uint256 pmtAmount)\r\n        {\r\n            pmtAmount = _amountAfterFees.mul(getSpecificRoyaltySplit(_licenseId, _royaltyType)).div(100);\r\n        }\r\n}\r\n\r\ncontract ManageLicense is LicenseHelper {\r\n\r\n     ////////////////////////////////////////////////\r\n     //        MANAGE A LICENSE FUNCTIONS         //\r\n    ////////////////////////////////////////////////\r\n            //ALL LICENSES DEFAULT TO US JURISDICTION\r\n        function createTokenLicense(\r\n            uint256 _tokenId,\r\n            address _msgSender,\r\n            address _tokenAddress,\r\n            uint256 _royaltySplit1,\r\n            uint256 _royaltySplit2,\r\n            uint256 _royaltySplit3,\r\n            uint256 _royaltySplit4,\r\n            uint256 _royaltySplit5,\r\n            uint256 _royaltySplit6,\r\n            uint256 _royaltySplit7,\r\n            uint256 _royaltySplit8\r\n        )\r\n            public\r\n            onlyTokenOwner(_tokenId, _msgSender, _tokenAddress)\r\n            whenNotPaused\r\n            returns(uint256 _licenseId)\r\n        {\r\n            _licenseId = _createALicense(_tokenId);\r\n\r\n            _addGenericRoyaltySplits(\r\n                _tokenId,\r\n                _licenseId,\r\n                _royaltySplit1,\r\n                _royaltySplit2,\r\n                _royaltySplit3,\r\n                _royaltySplit4,\r\n                _royaltySplit5,\r\n                _royaltySplit6,\r\n                _royaltySplit7,\r\n                _royaltySplit8\r\n            );\r\n        }\r\n\r\n        function _addGenericRoyaltySplits(\r\n            uint256 _tokenId,\r\n            uint256 _licenseId,\r\n            uint256 _royaltySplit1,\r\n            uint256 _royaltySplit2,\r\n            uint256 _royaltySplit3,\r\n            uint256 _royaltySplit4,\r\n            uint256 _royaltySplit5,\r\n            uint256 _royaltySplit6,\r\n            uint256 _royaltySplit7,\r\n            uint256 _royaltySplit8\r\n        )\r\n            internal\r\n        {\r\n            _checkRoyaltySplit(_royaltySplit1);\r\n            _checkRoyaltySplit(_royaltySplit2);\r\n            _checkRoyaltySplit(_royaltySplit3);\r\n            _checkRoyaltySplit(_royaltySplit4);\r\n            _checkRoyaltySplit(_royaltySplit5);\r\n            _checkRoyaltySplit(_royaltySplit6);\r\n            _checkRoyaltySplit(_royaltySplit7);\r\n            _checkRoyaltySplit(_royaltySplit8);\r\n            \r\n            royaltySplits[_licenseId].royaltyPercentage1 = _royaltySplit1;\r\n            royaltySplits[_licenseId].royaltyPercentage2 = _royaltySplit2;\r\n            royaltySplits[_licenseId].royaltyPercentage3 = _royaltySplit3;\r\n            royaltySplits[_licenseId].royaltyPercentage4 = _royaltySplit4;\r\n            royaltySplits[_licenseId].royaltyPercentage5 = _royaltySplit5;\r\n            royaltySplits[_licenseId].royaltyPercentage6 = _royaltySplit6;\r\n            royaltySplits[_licenseId].royaltyPercentage7 = _royaltySplit7;\r\n            royaltySplits[_licenseId].royaltyPercentage8 = _royaltySplit8;\r\n\r\n            emit RoyaltySplitsAdded(\r\n                _tokenId,\r\n                _licenseId,\r\n                _royaltySplit1,\r\n                _royaltySplit2,\r\n                _royaltySplit3, \r\n                _royaltySplit4,\r\n                _royaltySplit5,\r\n                _royaltySplit6,\r\n                _royaltySplit7,\r\n                _royaltySplit8\r\n            );\r\n        }\r\n        \r\n        function _checkRoyaltySplit(uint256 _royaltySplitInput)\r\n            internal\r\n            pure\r\n        {\r\n            require(_royaltySplitInput <= 100,\r\n                    \"LICENSING: INVALID ROYALTY SPLIT\");\r\n        }\r\n\r\n        function _createALicense(uint256 _tokenId)\r\n            internal\r\n            returns(uint256 _licenseId)\r\n        {\r\n            _licenseId = generateId(\r\n                msg.sender,\r\n                _tokenId,\r\n                block.timestamp\r\n            );\r\n            \r\n            licenses[_licenseId].tokenId = _tokenId;\r\n            licenses[_licenseId].licenseCreator = msg.sender;\r\n            licenses[_licenseId].registeredOn = block.timestamp;\r\n            licenses[_licenseId].governingLawJurisdiction = \"US\";\r\n\r\n            tokenToLicenseMapping[_tokenId] = (_licenseId);\r\n            emit LicenseCreated(_tokenId, _licenseId, msg.sender);\r\n        }\r\n\r\n        //will only update current license gov juris value\r\n        function updateGoverningJurisdiction(\r\n            uint256 _tokenId,\r\n            address _msgSender,\r\n            address _tokenAddress,\r\n            string memory _newJuridiction\r\n        )\r\n            public\r\n            onlyTokenOwner(getLicenseIdFromTokenId(_tokenId), _msgSender, _tokenAddress)\r\n            whenNotPaused\r\n        {\r\n            require(bytes(_newJuridiction).length != 0,\r\n                    \"LICENSE: cannot submit empty Jurisdiction\"\r\n            );\r\n\r\n            licenses[getLicenseIdFromTokenId(_tokenId)].governingLawJurisdiction = _newJuridiction;\r\n        }\r\n\r\n        /*\r\n                PLEASE UPDATE BY CREATING A NEW LICENSE WITH SAME TOKEN ID\r\n        */\r\n}\r\n\r\ncontract TokenLicensing is ManageLicense {\r\n\r\n    ////////////////////////////////////////////////\r\n    //                  CORE                      //\r\n    ////////////////////////////////////////////////\r\n        constructor(\r\n            address payable licensedTokenAddr\r\n        )\r\n            payable \r\n        {\r\n            licensedToken = IERC721(licensedTokenAddr);\r\n        }\r\n\r\n        receive() external payable {\r\n            //revert to prevent accidental value lock\r\n            revert(\"NO PMTS TO TOKEN LICENSING\");\r\n        }   \r\n}\r\n\r\n\r\n\r\n\r\ncontract LicenseAgreements is AccessController{\r\n    using SafeMath for uint256;\r\n\r\n    ////////////////////////////////////////////////\r\n    //                  VARS                      //\r\n    ////////////////////////////////////////////////\r\n        struct Agreement {\r\n            address buyerAddr;\r\n            uint256 licenseId;\r\n            uint256 childTokenId;\r\n        }\r\n\r\n        mapping(uint256 => Agreement) public agreementDetails;              //agreementDetails[agreementId] => Agreement struct\r\n        mapping(uint256 => mapping(uint256 => uint256)) public agreements;  //agreements[_childTokenId][_parentTokenId] => agreementId\r\n\r\n        mapping(uint256 => uint256) public tokenLineage;                    //tokenLineage[_newlyMintedTokenId] => parentTokenId aka base token aka original token\r\n        mapping(uint256 => uint256) public tokenGenerationNumber;           //tokenGenerationNumber[tokenId] => generation counter\r\n\r\n        mapping(uint256 => bool) internal agreementIdHasBeenGenerated;         //agreementIdHasBeenGenerated[_agreementId] => true/false\r\n        mapping(address => bool) public approvedAgreementMakerContracts;     //only licenseMarketplace can create agreements\r\n\r\n        event AgreementSigned(address buyer, uint256 tokenId, uint256 agreementId);\r\n\r\n        modifier onlyApprovedAgreementMaker(address _msgSender)\r\n        {\r\n            require(approvedAgreementMakerContracts[_msgSender] == true,\r\n                    \"AGREEMENTS: ONLY APPROVED CONTRACTS CAN STORE DATA\"\r\n            );\r\n\r\n            _;\r\n        }\r\n\r\n    ////////////////////////////////////////////////\r\n    //           ADMIN SETUP FUNCTION             //\r\n    ////////////////////////////////////////////////\r\n        function approveAgreementMaker(address _approvedAgreementMaker)\r\n            external\r\n            onlyAdmin\r\n        {\r\n            approvedAgreementMakerContracts[_approvedAgreementMaker] = true;\r\n        }\r\n\r\n    ////////////////////////////////////////////////\r\n    //                  CORE                      //\r\n    ////////////////////////////////////////////////\r\n        function signAgreement(address _buyerAddr, uint256 _licenseId, uint256 _tokenId, uint256 _childTokenId, uint256 _timestamp)\r\n            public\r\n            onlyApprovedAgreementMaker(msg.sender)\r\n            returns(uint256 _agreementId)\r\n        {\r\n            _agreementId =  generateAgreementId(\r\n                                _buyerAddr,\r\n                                _tokenId,\r\n                                _childTokenId,\r\n                                _licenseId,\r\n                                _timestamp\r\n                            );\r\n            \r\n            agreements[_childTokenId][_tokenId] = _agreementId;\r\n            agreementDetails[_agreementId].buyerAddr = _buyerAddr;\r\n            agreementDetails[_agreementId].licenseId = _licenseId;\r\n            \r\n            //CHILD TOKEN DETAILS\r\n            tokenLineage[_childTokenId] = _tokenId;\r\n            agreementDetails[_agreementId].childTokenId = _childTokenId;\r\n            \r\n            _updateTokenGeneration(_childTokenId, _tokenId);\r\n            \r\n            emit AgreementSigned(_buyerAddr, _tokenId, _agreementId);\r\n        }\r\n\r\n        function _updateTokenGeneration(uint256 _childTokenId, uint256 _parentTokenId)\r\n            internal\r\n        {\r\n            require(tokenGenerationNumber[_parentTokenId] < 10,\r\n                    \"AGREEMENTS: CANNOT HAVE > 10 CHILDREN\"\r\n            );\r\n            \r\n            tokenGenerationNumber[_childTokenId] = tokenGenerationNumber[_parentTokenId].add(1);\r\n        }\r\n\r\n    ////////////////////////////////////////////////\r\n    //              GETTER FUNCTIONS              //\r\n    ////////////////////////////////////////////////\r\n        function getAgreementId(uint256 _childTokenId)\r\n            external\r\n            view\r\n            returns(uint256 agreementId)\r\n        {\r\n            agreementId = agreements[_childTokenId][tokenLineage[_childTokenId]];\r\n        }\r\n\r\n        function getChildTokenId(uint256 _agreementId)\r\n            external\r\n            view\r\n            returns(uint256)\r\n        {\r\n            return(agreementDetails[_agreementId].childTokenId);\r\n        }\r\n\r\n        function getLicenseIdByAgreementId(uint256 _agreementId)\r\n            external\r\n            view\r\n            returns(uint256)\r\n        {\r\n            return(agreementDetails[_agreementId].licenseId);\r\n        }        \r\n\r\n        function getAgreementBuyerAddress(uint256 _agreementId)\r\n            external\r\n            view\r\n            returns(address)\r\n        {\r\n            return(agreementDetails[_agreementId].buyerAddr);\r\n        }\r\n\r\n    ////////////////////////////////////////////////\r\n    //              HELPER FUNCTIONS              //\r\n    ////////////////////////////////////////////////\r\n        function generateAgreementId(\r\n            address _senderAddr,\r\n            uint256 _tokenId,\r\n            uint256 _childTokenId,\r\n            uint256 _licenseId,\r\n            uint256 _timestamp\r\n        )\r\n            internal\r\n            returns(uint256 agreementId)\r\n        {\r\n            agreementId = uint256(\r\n                keccak256(\r\n                    abi.encodePacked(_senderAddr, _tokenId, _childTokenId, _licenseId, _timestamp)\r\n                )\r\n            );\r\n\r\n            checkIdUniqueness(agreementId);\r\n        }\r\n\r\n        function checkIdUniqueness(uint256 agreementId)\r\n            internal\r\n        {\r\n            require(agreementIdHasBeenGenerated[agreementId] != true,\r\n                   \"AGREEMENTS: agreementId has already been generated, try again\"\r\n            );\r\n            \r\n            require(agreementId != 0,\r\n                    \"AGREEMENTS: agreementId CANNOT BE 0\"\r\n            );\r\n\r\n            agreementIdHasBeenGenerated[agreementId] = true;\r\n        }\r\n}\r\n\r\n\r\n\r\ncontract xrRegistry is AccessController{\r\n\r\n    /*\r\n    * TOKEN MANAGEMENT\r\n    *   Will be used as:\r\n    *   tokenManager[msg.sender] to return NFT address to use to get token for licensing + minting.\r\n    */\r\n    mapping(address => address) tokenManager; //tokenManager[myProjectsContractAddress] => nftAddress\r\n\r\n    //REGISTRATION MANAGEMENT\r\n    mapping(address => bool) private isRegistered; //isRegistered[MyProjectsContractAddress] => true/false - only updated here\r\n\r\n    address RoyaltyNFT;\r\n    mapping(address => address) registeredContractAdminAddress; //registeredContractAdminAddress[msg.sender] = registered contract addr\r\n\r\n    //registering without a token defaults to the generic RoyaltyNFT provided by 0xR\r\n    function register(\r\n        address _candidateAddress\r\n    )\r\n        public\r\n        payable\r\n    {\r\n        //charge .025ETH registration fee\r\n            //send to 0xR revenue sharing contract\r\n\r\n        tokenManager[_candidateAddress] = RoyaltyNFT;\r\n\r\n        isRegistered[_candidateAddress] = true;\r\n\r\n        updateContractController(msg.sender, _candidateAddress);\r\n    }\r\n\r\n    function register(\r\n        address _candidateAddress,\r\n        address _tokenCandidateAddress\r\n    )\r\n        public\r\n        payable\r\n    {\r\n        //charge .025ETH registration fee\r\n            //send to 0xR revenue sharing contract\r\n\r\n        registerToken(\r\n            _candidateAddress,\r\n            _tokenCandidateAddress    \r\n        );\r\n\r\n        isRegistered[_candidateAddress] = true;\r\n        updateContractController(msg.sender, _candidateAddress);\r\n    }\r\n\r\n    function registerToken(\r\n        address _candidateAddress,\r\n        address _tokenCandidateAddress\r\n    )\r\n        internal\r\n    {\r\n                //check token meets requirements:\r\n                    //implicitly requiring ERC165 implementation?\r\n            //require is ERC721\r\n            //require is ERC21 Minting\r\n            //require is ERC721 Metadata\r\n\r\n            tokenManager[_candidateAddress] = _tokenCandidateAddress;\r\n    }\r\n\r\n    function updateContractController(\r\n        address _msgSender,\r\n        address _registeredContract\r\n    )\r\n        internal\r\n    {\r\n        registeredContractAdminAddress[_msgSender] = _registeredContract;\r\n    }\r\n\r\n    function updateTokenForRegisteredContract(\r\n        address _registeredContractAddr,\r\n        address _newTokenAddr\r\n    )\r\n        external\r\n    {\r\n        require(registeredContractAdminAddress[msg.sender] == _registeredContractAddr);\r\n\r\n        tokenManager[_registeredContractAddr] = _newTokenAddr;\r\n    }\r\n\r\n\r\n    function isSenderRegistered(address _queriedAddress)\r\n        public\r\n        view\r\n        returns(bool)\r\n    {\r\n        return(isRegistered[_queriedAddress]);\r\n    }\r\n\r\n}\r\n",
  "sourcePath": "C:\\dev\\0xRoyaltiesUnofficial\\contracts\\flat-contracts\\0xR_flat.sol",
  "compiler": {
    "name": "solc",
    "version": "0.8.13+commit.abaa5c0e.Emscripten.clang"
  },
  "schemaVersion": "3.4.7",
  "updatedAt": "2022-05-01T23:26:15.850Z",
  "devdoc": {
    "kind": "dev",
    "methods": {},
    "version": 1
  },
  "userdoc": {
    "kind": "user",
    "methods": {},
    "version": 1
  }
}