{
  "contractName": "xrRegistry",
  "abi": [
    {
      "anonymous": false,
      "inputs": [
        {
          "indexed": false,
          "internalType": "address",
          "name": "newAdminAddress",
          "type": "address"
        }
      ],
      "name": "AddedAdmin",
      "type": "event"
    },
    {
      "anonymous": false,
      "inputs": [
        {
          "indexed": false,
          "internalType": "address",
          "name": "newOwnerAddress",
          "type": "address"
        }
      ],
      "name": "OwnerSet",
      "type": "event"
    },
    {
      "anonymous": false,
      "inputs": [],
      "name": "Paused",
      "type": "event"
    },
    {
      "anonymous": false,
      "inputs": [
        {
          "indexed": false,
          "internalType": "address",
          "name": "prevAdminAddress",
          "type": "address"
        }
      ],
      "name": "RemovedAdmin",
      "type": "event"
    },
    {
      "anonymous": false,
      "inputs": [],
      "name": "Unpaused",
      "type": "event"
    },
    {
      "inputs": [],
      "name": "adminAddress",
      "outputs": [
        {
          "internalType": "address",
          "name": "",
          "type": "address"
        }
      ],
      "stateMutability": "view",
      "type": "function"
    },
    {
      "inputs": [],
      "name": "ownerAddress",
      "outputs": [
        {
          "internalType": "address",
          "name": "",
          "type": "address"
        }
      ],
      "stateMutability": "view",
      "type": "function"
    },
    {
      "inputs": [],
      "name": "pause",
      "outputs": [],
      "stateMutability": "nonpayable",
      "type": "function"
    },
    {
      "inputs": [],
      "name": "paused",
      "outputs": [
        {
          "internalType": "bool",
          "name": "",
          "type": "bool"
        }
      ],
      "stateMutability": "view",
      "type": "function"
    },
    {
      "inputs": [
        {
          "internalType": "address",
          "name": "_newAdminAddress",
          "type": "address"
        }
      ],
      "name": "setAdmin",
      "outputs": [],
      "stateMutability": "nonpayable",
      "type": "function"
    },
    {
      "inputs": [],
      "name": "unpause",
      "outputs": [],
      "stateMutability": "nonpayable",
      "type": "function"
    },
    {
      "inputs": [
        {
          "internalType": "address",
          "name": "_newOwnerAddress",
          "type": "address"
        }
      ],
      "name": "updateOwner",
      "outputs": [],
      "stateMutability": "nonpayable",
      "type": "function"
    },
    {
      "inputs": [
        {
          "internalType": "address",
          "name": "_candidateAddress",
          "type": "address"
        }
      ],
      "name": "register",
      "outputs": [],
      "stateMutability": "payable",
      "type": "function"
    },
    {
      "inputs": [
        {
          "internalType": "address",
          "name": "_candidateAddress",
          "type": "address"
        },
        {
          "internalType": "address",
          "name": "_tokenCandidateAddress",
          "type": "address"
        }
      ],
      "name": "register",
      "outputs": [],
      "stateMutability": "payable",
      "type": "function"
    },
    {
      "inputs": [
        {
          "internalType": "address",
          "name": "_registeredContractAddr",
          "type": "address"
        },
        {
          "internalType": "address",
          "name": "_newTokenAddr",
          "type": "address"
        }
      ],
      "name": "updateTokenForRegisteredContract",
      "outputs": [],
      "stateMutability": "nonpayable",
      "type": "function"
    },
    {
      "inputs": [
        {
          "internalType": "address",
          "name": "_queriedAddress",
          "type": "address"
        }
      ],
      "name": "isSenderRegistered",
      "outputs": [
        {
          "internalType": "bool",
          "name": "",
          "type": "bool"
        }
      ],
      "stateMutability": "view",
      "type": "function"
    }
  ],
  "bytecode": "0x60806040526001805460ff60a01b1916905534801561001d57600080fd5b50600080546001600160a01b0319163390811782558152600260209081526040808320805460ff19166001179055915491516001600160a01b0390921682527f50146d0e3c60aa1d17a70635b05494f864e86144a2201275021014fbf08bafe2910160405180910390a16000546040516001600160a01b0390911681527f7849194239ab1d31b991b5436d81370256505cf25eaafbcccbc66acd118969169060200160405180910390a161082c806100d66000396000f3fe6080604052600436106100ac5760003560e01c80638456cb5911610074578063aa6773541161004e578063aa67735414610231578063b840ace11461029a578063fc6f9468146102ba57600080fd5b80638456cb59146101c4578063880cdc31146101d95780638f84aa09146101f957600080fd5b80633f4ba83a146100b15780634420e486146100c85780635c975abb14610135578063704b6c021461016b578063799c66081461018b575b600080fd5b3480156100bd57600080fd5b506100c66102da565b005b6100c66100d6366004610713565b6005546001600160a01b0382811660008181526003602090815260408083208054959096166001600160a01b03199586161790955560048152848220805460ff1916600117905533825260069052929092208054909116909117905550565b34801561014157600080fd5b5060015461015690600160a01b900460ff1681565b60405190151581526020015b60405180910390f35b34801561017757600080fd5b506100c6610186366004610713565b6103b4565b34801561019757600080fd5b506101566101a6366004610713565b6001600160a01b031660009081526004602052604090205460ff1690565b3480156101d057600080fd5b506100c66104fd565b3480156101e557600080fd5b506100c66101f4366004610713565b6105c9565b34801561020557600080fd5b50600054610219906001600160a01b031681565b6040516001600160a01b039091168152602001610162565b6100c661023f366004610735565b6001600160a01b0391821660008181526003602090815260408083208054959096166001600160a01b03199586161790955560048152848220805460ff19166001179055338252600690529290922080549091169091179055565b3480156102a657600080fd5b506100c66102b5366004610735565b6106a2565b3480156102c657600080fd5b50600154610219906001600160a01b031681565b3360009081526002602052604090205460ff1615156001146103175760405162461bcd60e51b815260040161030e90610768565b60405180910390fd5b600154600160a01b900460ff1661037c5760405162461bcd60e51b815260206004820152602360248201527f416363657373436f6e74726f6c3a2063757272656e6c7479206e6f74207061756044820152621cd95960ea1b606482015260840161030e565b6001805460ff60a01b191690556040517fa45f47fdea8a1efdd9029a5691c7f759c32b7c698632b563573e155625d1693390600090a1565b6000546001600160a01b031633146103de5760405162461bcd60e51b815260040161030e906107af565b6001600160a01b0381166104425760405162461bcd60e51b815260206004820152602560248201527f416363657373436f6e74726f6c3a20696e76616c696420776f726b6572206164604482015264647265737360d81b606482015260840161030e565b600180546001600160a01b03908116600090815260026020908152604091829020805460ff1916905592549051911681527f3137a7fedbfedb7895dfa5a6812a4566dae9ded68d00aeec13c6ed1fa84a1c80910160405180910390a1600180546001600160a01b0319166001600160a01b0383169081179091556000819052600260209081526040519182527f7849194239ab1d31b991b5436d81370256505cf25eaafbcccbc66acd1189691691015b60405180910390a150565b3360009081526002602052604090205460ff1615156001146105315760405162461bcd60e51b815260040161030e90610768565b600154600160a01b900460ff161561058b5760405162461bcd60e51b815260206004820152601f60248201527f416363657373436f6e74726f6c3a2063757272656e746c792070617573656400604482015260640161030e565b6001805460ff60a01b1916600160a01b1790556040517f9e87fac88ff661f02d44f95383c817fece4bce600a3dab7a54406878b965e75290600090a1565b6000546001600160a01b031633146105f35760405162461bcd60e51b815260040161030e906107af565b6001600160a01b0381166106545760405162461bcd60e51b815260206004820152602260248201527f416363657373436f6e74726f6c3a20696e76616c69642043454f206164647265604482015261737360f01b606482015260840161030e565b600080546001600160a01b0319166001600160a01b0383169081179091556040519081527f50146d0e3c60aa1d17a70635b05494f864e86144a2201275021014fbf08bafe2906020016104f2565b336000908152600660205260409020546001600160a01b038381169116146106c957600080fd5b6001600160a01b03918216600090815260036020526040902080546001600160a01b03191691909216179055565b80356001600160a01b038116811461070e57600080fd5b919050565b60006020828403121561072557600080fd5b61072e826106f7565b9392505050565b6000806040838503121561074857600080fd5b610751836106f7565b915061075f602084016106f7565b90509250929050565b60208082526027908201527f416363657373436f6e74726f6c3a206d73672e73656e646572206d7573742062604082015266329030b236b4b760c91b606082015260800190565b60208082526027908201527f416363657373436f6e74726f6c3a206d73672e73656e646572206d7573742062604082015266329037bbb732b960c91b60608201526080019056fea26469706673582212209d41cdd7780cbbd18c44ffdae20f968388a3d2658f703521bf9d38a61190229c64736f6c634300080d0033",
  "immutableReferences": {},
  "source": "//SPDX-License-Identifier: agpl-3.0\n//-U+2654-  - 0xRoyalties\npragma solidity ^0.8.0;\nimport \"./common-contracts/AccessControl.sol\";\n\ncontract xrRegistry is AccessController{\n\n    /*\n    * TOKEN MANAGEMENT\n    *   Will be used as:\n    *   tokenManager[msg.sender] to return NFT address to use to get token for licensing + minting.\n    */\n    mapping(address => address) tokenManager; //tokenManager[myProjectsContractAddress] => nftAddress\n\n    //REGISTRATION MANAGEMENT\n    mapping(address => bool) private isRegistered; //isRegistered[MyProjectsContractAddress] => true/false - only updated here\n\n    address RoyaltyNFT;\n    mapping(address => address) registeredContractAdminAddress; //registeredContractAdminAddress[msg.sender] = registered contract addr\n\n    //registering without a token defaults to the generic RoyaltyNFT provided by 0xR\n    function register(\n        address _candidateAddress\n    )\n        public\n        payable\n    {\n        //charge .025ETH registration fee\n            //send to 0xR revenue sharing contract\n\n        tokenManager[_candidateAddress] = RoyaltyNFT;\n\n        isRegistered[_candidateAddress] = true;\n\n        updateContractController(msg.sender, _candidateAddress);\n    }\n\n    function register(\n        address _candidateAddress,\n        address _tokenCandidateAddress\n    )\n        public\n        payable\n    {\n        //charge .025ETH registration fee\n            //send to 0xR revenue sharing contract\n\n        registerToken(\n            _candidateAddress,\n            _tokenCandidateAddress    \n        );\n\n        isRegistered[_candidateAddress] = true;\n        updateContractController(msg.sender, _candidateAddress);\n    }\n\n    function registerToken(\n        address _candidateAddress,\n        address _tokenCandidateAddress\n    )\n        internal\n    {\n                //check token meets requirements:\n                    //implicitly requiring ERC165 implementation?\n            //require is ERC721\n            //require is ERC21 Minting\n            //require is ERC721 Metadata\n\n            tokenManager[_candidateAddress] = _tokenCandidateAddress;\n    }\n\n    function updateContractController(\n        address _msgSender,\n        address _registeredContract\n    )\n        internal\n    {\n        registeredContractAdminAddress[_msgSender] = _registeredContract;\n    }\n\n    function updateTokenForRegisteredContract(\n        address _registeredContractAddr,\n        address _newTokenAddr\n    )\n        external\n    {\n        require(registeredContractAdminAddress[msg.sender] == _registeredContractAddr);\n\n        tokenManager[_registeredContractAddr] = _newTokenAddr;\n    }\n\n\n    function isSenderRegistered(address _queriedAddress)\n        public\n        view\n        returns(bool)\n    {\n        return(isRegistered[_queriedAddress]);\n    }\n\n}",
  "sourcePath": "C:\\dev\\0xRoyaltiesUnofficial\\contracts\\xrRegistry.sol",
  "compiler": {
    "name": "solc",
    "version": "0.8.13+commit.abaa5c0e.Emscripten.clang"
  },
  "schemaVersion": "3.4.7",
  "updatedAt": "2022-05-01T23:26:15.902Z",
  "devdoc": {
    "kind": "dev",
    "methods": {},
    "version": 1
  },
  "userdoc": {
    "kind": "user",
    "methods": {},
    "version": 1
  }
}